{
  "contractName": "MultiSigSplittedWallet",
  "abi": [
    {
      "constant": true,
      "inputs": [],
      "name": "totalShares",
      "outputs": [
        {
          "name": "",
          "type": "uint256"
        }
      ],
      "payable": false,
      "stateMutability": "view",
      "type": "function"
    },
    {
      "constant": true,
      "inputs": [
        {
          "name": "account",
          "type": "address"
        }
      ],
      "name": "getPaymentAmount",
      "outputs": [
        {
          "name": "",
          "type": "uint256"
        }
      ],
      "payable": false,
      "stateMutability": "view",
      "type": "function"
    },
    {
      "constant": true,
      "inputs": [
        {
          "name": "account",
          "type": "address"
        }
      ],
      "name": "isSigner",
      "outputs": [
        {
          "name": "",
          "type": "bool"
        }
      ],
      "payable": false,
      "stateMutability": "view",
      "type": "function"
    },
    {
      "constant": true,
      "inputs": [
        {
          "name": "index",
          "type": "uint256"
        }
      ],
      "name": "payee",
      "outputs": [
        {
          "name": "",
          "type": "address"
        }
      ],
      "payable": false,
      "stateMutability": "view",
      "type": "function"
    },
    {
      "constant": true,
      "inputs": [
        {
          "name": "account",
          "type": "address"
        }
      ],
      "name": "released",
      "outputs": [
        {
          "name": "",
          "type": "uint256"
        }
      ],
      "payable": false,
      "stateMutability": "view",
      "type": "function"
    },
    {
      "constant": true,
      "inputs": [
        {
          "name": "account",
          "type": "address"
        }
      ],
      "name": "shares",
      "outputs": [
        {
          "name": "",
          "type": "uint256"
        }
      ],
      "payable": false,
      "stateMutability": "view",
      "type": "function"
    },
    {
      "constant": true,
      "inputs": [],
      "name": "totalReleased",
      "outputs": [
        {
          "name": "",
          "type": "uint256"
        }
      ],
      "payable": false,
      "stateMutability": "view",
      "type": "function"
    },
    {
      "constant": false,
      "inputs": [],
      "name": "renounceSigner",
      "outputs": [],
      "payable": false,
      "stateMutability": "nonpayable",
      "type": "function"
    },
    {
      "constant": false,
      "inputs": [
        {
          "name": "account",
          "type": "address"
        }
      ],
      "name": "addSigner",
      "outputs": [],
      "payable": false,
      "stateMutability": "nonpayable",
      "type": "function"
    },
    {
      "inputs": [
        {
          "name": "payees",
          "type": "address[]"
        },
        {
          "name": "shares",
          "type": "uint256[]"
        }
      ],
      "payable": false,
      "stateMutability": "nonpayable",
      "type": "constructor"
    },
    {
      "anonymous": false,
      "inputs": [
        {
          "indexed": true,
          "name": "account",
          "type": "address"
        }
      ],
      "name": "SignerAdded",
      "type": "event"
    },
    {
      "anonymous": false,
      "inputs": [
        {
          "indexed": true,
          "name": "account",
          "type": "address"
        }
      ],
      "name": "SignerRemoved",
      "type": "event"
    },
    {
      "anonymous": false,
      "inputs": [
        {
          "indexed": false,
          "name": "account",
          "type": "address"
        },
        {
          "indexed": false,
          "name": "shares",
          "type": "uint256"
        }
      ],
      "name": "PayeeAdded",
      "type": "event"
    },
    {
      "anonymous": false,
      "inputs": [
        {
          "indexed": false,
          "name": "to",
          "type": "address"
        },
        {
          "indexed": false,
          "name": "amount",
          "type": "uint256"
        }
      ],
      "name": "PaymentReleased",
      "type": "event"
    },
    {
      "anonymous": false,
      "inputs": [
        {
          "indexed": false,
          "name": "from",
          "type": "address"
        },
        {
          "indexed": false,
          "name": "amount",
          "type": "uint256"
        }
      ],
      "name": "PaymentReceived",
      "type": "event"
    }
  ],
  "bytecode": "0x60806040523480156200001157600080fd5b5060405162000f4638038062000f46833981018060405260408110156200003757600080fd5b8101908080516401000000008111156200005057600080fd5b820160208101848111156200006457600080fd5b81518560208202830111640100000000821117156200008257600080fd5b505092919060200180516401000000008111156200009f57600080fd5b82016020810184811115620000b357600080fd5b8151856020820283011164010000000082111715620000d157600080fd5b50509291905050508181805182511462000137576040517f08c379a000000000000000000000000000000000000000000000000000000000815260040180806020018281038252603281526020018062000ee96032913960400191505060405180910390fd5b6000825111620001a857604080517f08c379a000000000000000000000000000000000000000000000000000000000815260206004820152601a60248201527f5061796d656e7453706c69747465723a206e6f20706179656573000000000000604482015290519081900360640190fd5b60005b8251811015620001f857620001ef838281518110620001c657fe5b6020026020010151838381518110620001db57fe5b60200260200101516200025f60201b60201c565b600101620001ab565b5050506200021b6200020f6200046060201b60201c565b6200046460201b60201c565b60005b825181101562000256576200024d8382815181106200023957fe5b60200260200101516200046460201b60201c565b6001016200021e565b50505062000659565b6001600160a01b038216620002c0576040517f08c379a000000000000000000000000000000000000000000000000000000000815260040180806020018281038252602c81526020018062000e9b602c913960400191505060405180910390fd5b600081116200033057604080517f08c379a000000000000000000000000000000000000000000000000000000000815260206004820152601d60248201527f5061796d656e7453706c69747465723a20736861726573206172652030000000604482015290519081900360640190fd5b6001600160a01b03821660009081526002602052604090205415620003a1576040517f08c379a000000000000000000000000000000000000000000000000000000000815260040180806020018281038252602b81526020018062000f1b602b913960400191505060405180910390fd5b60048054600181019091557f8a35acfbc15ff81a39ae7d344fd709f28e8600b4aa8c65c6b64bfe7fe36bd19b0180546001600160a01b0319166001600160a01b03841690811790915560009081526002602090815260408220839055905462000415918390620004b6811b6200034017901c565b600055604080516001600160a01b03841681526020810183905281517f40c340f65e17194d14ddddb073d3c9f888e3cb52b5aae0c6c7706b4fbc905fac929181900390910190a15050565b3390565b6200047f8160056200053260201b620006ee1790919060201c565b6040516001600160a01b038216907f47d1c22a25bb3a5d4e481b9b1e6944c2eade3181a0a20b495ed61d35b5323f2490600090a250565b6000828201838110156200052b57604080517f08c379a000000000000000000000000000000000000000000000000000000000815260206004820152601b60248201527f536166654d6174683a206164646974696f6e206f766572666c6f770000000000604482015290519081900360640190fd5b9392505050565b620005448282620005d660201b60201c565b15620005b157604080517f08c379a000000000000000000000000000000000000000000000000000000000815260206004820152601f60248201527f526f6c65733a206163636f756e7420616c72656164792068617320726f6c6500604482015290519081900360640190fd5b6001600160a01b0316600090815260209190915260409020805460ff19166001179055565b60006001600160a01b03821662000639576040517f08c379a000000000000000000000000000000000000000000000000000000000815260040180806020018281038252602281526020018062000ec76022913960400191505060405180910390fd5b506001600160a01b03166000908152602091909152604090205460ff1690565b61083280620006696000396000f3fe608060405234801561001057600080fd5b50600436106100935760003560e01c80639852595c116100665780639852595c1461014b578063ce7c2ac214610171578063e33b7de314610197578063e5c8b03d1461019f578063eb12d61e146101a957610093565b80633a98ef39146100985780634b04707a146100b25780637df73e27146100d85780638b83209b14610112575b600080fd5b6100a06101cf565b60408051918252519081900360200190f35b6100a0600480360360208110156100c857600080fd5b50356001600160a01b03166101d5565b6100fe600480360360208110156100ee57600080fd5b50356001600160a01b0316610255565b604080519115158252519081900360200190f35b61012f6004803603602081101561012857600080fd5b503561026e565b604080516001600160a01b039092168252519081900360200190f35b6100a06004803603602081101561016157600080fd5b50356001600160a01b0316610298565b6100a06004803603602081101561018757600080fd5b50356001600160a01b03166102b3565b6100a06102ce565b6101a76102d4565b005b6101a7600480360360208110156101bf57600080fd5b50356001600160a01b03166102e6565b60005490565b60015460009081906101ef9030319063ffffffff61034016565b6001600160a01b0384166000908152600360209081526040808320548354600290935290832054939450919261024d92916102419161023590879063ffffffff6103a416565b9063ffffffff61040016565b9063ffffffff61044216565b949350505050565b600061026860058363ffffffff61048416565b92915050565b60006004828154811061027d57fe5b6000918252602090912001546001600160a01b031692915050565b6001600160a01b031660009081526003602052604090205490565b6001600160a01b031660009081526002602052604090205490565b60015490565b6102e46102df6104ee565b6104f2565b565b6102f66102f16104ee565b610255565b61033457604051600160e51b62461bcd0281526004018080602001828103825260308152602001806107d76030913960400191505060405180910390fd5b61033d8161053a565b50565b60008282018381101561039d5760408051600160e51b62461bcd02815260206004820152601b60248201527f536166654d6174683a206164646974696f6e206f766572666c6f770000000000604482015290519081900360640190fd5b9392505050565b6000826103b357506000610268565b828202828482816103c057fe5b041461039d57604051600160e51b62461bcd0281526004018080602001828103825260218152602001806107946021913960400191505060405180910390fd5b600061039d83836040518060400160405280601a81526020017f536166654d6174683a206469766973696f6e206279207a65726f000000000000815250610582565b600061039d83836040518060400160405280601e81526020017f536166654d6174683a207375627472616374696f6e206f766572666c6f770000815250610627565b60006001600160a01b0382166104ce57604051600160e51b62461bcd0281526004018080602001828103825260228152602001806107b56022913960400191505060405180910390fd5b506001600160a01b03166000908152602091909152604090205460ff1690565b3390565b61050360058263ffffffff61068416565b6040516001600160a01b038216907f3525e22824a8a7df2c9a6029941c824cf95b6447f1e13d5128fd3826d35afe8b90600090a250565b61054b60058263ffffffff6106ee16565b6040516001600160a01b038216907f47d1c22a25bb3a5d4e481b9b1e6944c2eade3181a0a20b495ed61d35b5323f2490600090a250565b6000818361061157604051600160e51b62461bcd0281526004018080602001828103825283818151815260200191508051906020019080838360005b838110156105d65781810151838201526020016105be565b50505050905090810190601f1680156106035780820380516001836020036101000a031916815260200191505b509250505060405180910390fd5b50600083858161061d57fe5b0495945050505050565b6000818484111561067c57604051600160e51b62461bcd0281526020600482018181528351602484015283519092839260449091019190850190808383600083156105d65781810151838201526020016105be565b505050900390565b61068e8282610484565b6106cc57604051600160e51b62461bcd0281526004018080602001828103825260218152602001806107736021913960400191505060405180910390fd5b6001600160a01b0316600090815260209190915260409020805460ff19169055565b6106f88282610484565b1561074d5760408051600160e51b62461bcd02815260206004820152601f60248201527f526f6c65733a206163636f756e7420616c72656164792068617320726f6c6500604482015290519081900360640190fd5b6001600160a01b0316600090815260209190915260409020805460ff1916600117905556fe526f6c65733a206163636f756e7420646f6573206e6f74206861766520726f6c65536166654d6174683a206d756c7469706c69636174696f6e206f766572666c6f77526f6c65733a206163636f756e7420697320746865207a65726f20616464726573735369676e6572526f6c653a2063616c6c657220646f6573206e6f74206861766520746865205369676e657220726f6c65a165627a7a72305820cf02c121596c851e28d021aaba2e40f4bce32b5ffdd016e246503b5cfce46fd000295061796d656e7453706c69747465723a206163636f756e7420697320746865207a65726f2061646472657373526f6c65733a206163636f756e7420697320746865207a65726f20616464726573735061796d656e7453706c69747465723a2070617965657320616e6420736861726573206c656e677468206d69736d617463685061796d656e7453706c69747465723a206163636f756e7420616c72656164792068617320736861726573",
  "source": "pragma solidity ^0.5.0;\n\nimport \"./PaymentSplitterChanged.sol\";\nimport \"@openzeppelin/contracts/access/roles/SignerRole.sol\";\n\n/// @title Multisignature wallet - Allows multiple parties to agree on transactions before execution.\n/// @author Stefan George - <stefan.george@consensys.net>\n/// params\ncontract MultiSigSplittedWallet is  PaymentSplitterChanged, SignerRole {\n\n    struct Transaction {\n        address destination;\n        uint value;\n        bytes data;\n        bool executed;\n    }\n\n    constructor(address[] memory payees, uint256[] memory shares) PaymentSplitterChanged(payees, shares) public { \n        //добавление сигнер роли всем участникам\n        for (uint256 i = 0; i < payees.length; i++) {\n            _addSigner(payees[i]);\n        }\n    }\n\n\n    //Overridere release , теперь она не отправляет деньги напрямую, а только меняет данные внутри контракта\n    function release(address payable account) internal {\n        require(_shares[account] > 0, \"PaymentSplitter: account has no shares\");\n\n        uint256 totalReceived = address(this).balance.add(_totalReleased);\n        uint256 payment = totalReceived.mul(_shares[account]).div(_totalShares).sub(_released[account]);\n\n        require(payment != 0, \"PaymentSplitter: account is not due payment\");\n\n        _released[account] = _released[account].add(payment);\n        _totalReleased = _totalReleased.add(payment);\n\n        //account.transfer(payment); //we will not transfer from this func\n        emit PaymentReleased(account, payment);\n    }\n\n    //Рассчет доли\n    function getPaymentCount(address payable account) internal view returns(uint256) {\n        require(_shares[account] > 0, \"PaymentSplitter: account has no shares\");\n\n        uint256 totalReceived = address(this).balance.add(_totalReleased);\n        uint256 payment = totalReceived.mul(_shares[account]).div(_totalShares).sub(_released[account]);\n        return payment;\n    }\n}",
  "sourcePath": "/home/intfloatbool/Документы/CrowdSale_MyContract/contracts/MultiSigSplittedWallet.sol",
  "compiler": {
    "name": "solc",
    "version": "0.5.8+commit.23d335f2.Emscripten.clang"
  },
  "schemaVersion": "3.0.17",
  "updatedAt": "2019-11-12T14:04:52.857Z",
  "devdoc": {
    "author": "Stefan George - <stefan.george@consensys.net> params",
    "methods": {
      "payee(uint256)": {
        "details": "Getter for the address of the payee number `index`."
      },
      "released(address)": {
        "details": "Getter for the amount of Ether already released to a payee."
      },
      "shares(address)": {
        "details": "Getter for the amount of shares held by an account."
      },
      "totalReleased()": {
        "details": "Getter for the total amount of Ether already released."
      },
      "totalShares()": {
        "details": "Getter for the total shares held by payees."
      }
    },
    "title": "Multisignature wallet - Allows multiple parties to agree on transactions before execution."
  },
  "userdoc": {
    "methods": {}
  }
}