{
  "contractName": "MultiSigWallet",
  "abi": [
    {
      "constant": true,
      "inputs": [
        {
          "name": "",
          "type": "uint256"
        }
      ],
      "name": "owners",
      "outputs": [
        {
          "name": "",
          "type": "address"
        }
      ],
      "payable": false,
      "stateMutability": "view",
      "type": "function"
    },
    {
      "constant": true,
      "inputs": [
        {
          "name": "",
          "type": "address"
        }
      ],
      "name": "isOwner",
      "outputs": [
        {
          "name": "",
          "type": "bool"
        }
      ],
      "payable": false,
      "stateMutability": "view",
      "type": "function"
    },
    {
      "constant": true,
      "inputs": [
        {
          "name": "",
          "type": "uint256"
        },
        {
          "name": "",
          "type": "address"
        }
      ],
      "name": "confirmations",
      "outputs": [
        {
          "name": "",
          "type": "bool"
        }
      ],
      "payable": false,
      "stateMutability": "view",
      "type": "function"
    },
    {
      "constant": true,
      "inputs": [
        {
          "name": "",
          "type": "uint256"
        }
      ],
      "name": "transactions",
      "outputs": [
        {
          "name": "destination",
          "type": "address"
        },
        {
          "name": "value",
          "type": "uint256"
        },
        {
          "name": "data",
          "type": "bytes"
        },
        {
          "name": "executed",
          "type": "bool"
        }
      ],
      "payable": false,
      "stateMutability": "view",
      "type": "function"
    },
    {
      "constant": true,
      "inputs": [],
      "name": "transactionCount",
      "outputs": [
        {
          "name": "",
          "type": "uint256"
        }
      ],
      "payable": false,
      "stateMutability": "view",
      "type": "function"
    },
    {
      "constant": true,
      "inputs": [],
      "name": "MAX_OWNER_COUNT",
      "outputs": [
        {
          "name": "",
          "type": "uint256"
        }
      ],
      "payable": false,
      "stateMutability": "view",
      "type": "function"
    },
    {
      "constant": true,
      "inputs": [],
      "name": "required",
      "outputs": [
        {
          "name": "",
          "type": "uint256"
        }
      ],
      "payable": false,
      "stateMutability": "view",
      "type": "function"
    },
    {
      "inputs": [
        {
          "name": "_owners",
          "type": "address[]"
        },
        {
          "name": "_required",
          "type": "uint256"
        }
      ],
      "payable": false,
      "stateMutability": "nonpayable",
      "type": "constructor"
    },
    {
      "payable": true,
      "stateMutability": "payable",
      "type": "fallback"
    },
    {
      "anonymous": false,
      "inputs": [
        {
          "indexed": true,
          "name": "sender",
          "type": "address"
        },
        {
          "indexed": true,
          "name": "transactionId",
          "type": "uint256"
        }
      ],
      "name": "Confirmation",
      "type": "event"
    },
    {
      "anonymous": false,
      "inputs": [
        {
          "indexed": true,
          "name": "sender",
          "type": "address"
        },
        {
          "indexed": true,
          "name": "transactionId",
          "type": "uint256"
        }
      ],
      "name": "Revocation",
      "type": "event"
    },
    {
      "anonymous": false,
      "inputs": [
        {
          "indexed": true,
          "name": "transactionId",
          "type": "uint256"
        }
      ],
      "name": "Submission",
      "type": "event"
    },
    {
      "anonymous": false,
      "inputs": [
        {
          "indexed": true,
          "name": "transactionId",
          "type": "uint256"
        }
      ],
      "name": "Execution",
      "type": "event"
    },
    {
      "anonymous": false,
      "inputs": [
        {
          "indexed": true,
          "name": "transactionId",
          "type": "uint256"
        }
      ],
      "name": "ExecutionFailure",
      "type": "event"
    },
    {
      "anonymous": false,
      "inputs": [
        {
          "indexed": true,
          "name": "sender",
          "type": "address"
        },
        {
          "indexed": false,
          "name": "value",
          "type": "uint256"
        }
      ],
      "name": "Deposit",
      "type": "event"
    },
    {
      "anonymous": false,
      "inputs": [
        {
          "indexed": true,
          "name": "owner",
          "type": "address"
        }
      ],
      "name": "OwnerAddition",
      "type": "event"
    },
    {
      "anonymous": false,
      "inputs": [
        {
          "indexed": true,
          "name": "owner",
          "type": "address"
        }
      ],
      "name": "OwnerRemoval",
      "type": "event"
    },
    {
      "anonymous": false,
      "inputs": [
        {
          "indexed": false,
          "name": "required",
          "type": "uint256"
        }
      ],
      "name": "RequirementChange",
      "type": "event"
    },
    {
      "constant": false,
      "inputs": [
        {
          "name": "owner",
          "type": "address"
        }
      ],
      "name": "addOwner",
      "outputs": [],
      "payable": false,
      "stateMutability": "nonpayable",
      "type": "function"
    },
    {
      "constant": false,
      "inputs": [
        {
          "name": "owner",
          "type": "address"
        }
      ],
      "name": "removeOwner",
      "outputs": [],
      "payable": false,
      "stateMutability": "nonpayable",
      "type": "function"
    },
    {
      "constant": false,
      "inputs": [
        {
          "name": "owner",
          "type": "address"
        },
        {
          "name": "newOwner",
          "type": "address"
        }
      ],
      "name": "replaceOwner",
      "outputs": [],
      "payable": false,
      "stateMutability": "nonpayable",
      "type": "function"
    },
    {
      "constant": false,
      "inputs": [
        {
          "name": "_required",
          "type": "uint256"
        }
      ],
      "name": "changeRequirement",
      "outputs": [],
      "payable": false,
      "stateMutability": "nonpayable",
      "type": "function"
    },
    {
      "constant": false,
      "inputs": [
        {
          "name": "destination",
          "type": "address"
        },
        {
          "name": "value",
          "type": "uint256"
        },
        {
          "name": "data",
          "type": "bytes"
        }
      ],
      "name": "submitTransaction",
      "outputs": [
        {
          "name": "transactionId",
          "type": "uint256"
        }
      ],
      "payable": false,
      "stateMutability": "nonpayable",
      "type": "function"
    },
    {
      "constant": false,
      "inputs": [
        {
          "name": "transactionId",
          "type": "uint256"
        }
      ],
      "name": "confirmTransaction",
      "outputs": [],
      "payable": false,
      "stateMutability": "nonpayable",
      "type": "function"
    },
    {
      "constant": false,
      "inputs": [
        {
          "name": "transactionId",
          "type": "uint256"
        }
      ],
      "name": "revokeConfirmation",
      "outputs": [],
      "payable": false,
      "stateMutability": "nonpayable",
      "type": "function"
    },
    {
      "constant": false,
      "inputs": [
        {
          "name": "transactionId",
          "type": "uint256"
        }
      ],
      "name": "executeTransaction",
      "outputs": [],
      "payable": false,
      "stateMutability": "nonpayable",
      "type": "function"
    },
    {
      "constant": true,
      "inputs": [
        {
          "name": "transactionId",
          "type": "uint256"
        }
      ],
      "name": "isConfirmed",
      "outputs": [
        {
          "name": "",
          "type": "bool"
        }
      ],
      "payable": false,
      "stateMutability": "view",
      "type": "function"
    },
    {
      "constant": true,
      "inputs": [
        {
          "name": "transactionId",
          "type": "uint256"
        }
      ],
      "name": "getConfirmationCount",
      "outputs": [
        {
          "name": "count",
          "type": "uint256"
        }
      ],
      "payable": false,
      "stateMutability": "view",
      "type": "function"
    },
    {
      "constant": true,
      "inputs": [
        {
          "name": "pending",
          "type": "bool"
        },
        {
          "name": "executed",
          "type": "bool"
        }
      ],
      "name": "getTransactionCount",
      "outputs": [
        {
          "name": "count",
          "type": "uint256"
        }
      ],
      "payable": false,
      "stateMutability": "view",
      "type": "function"
    },
    {
      "constant": true,
      "inputs": [],
      "name": "getOwners",
      "outputs": [
        {
          "name": "",
          "type": "address[]"
        }
      ],
      "payable": false,
      "stateMutability": "view",
      "type": "function"
    },
    {
      "constant": true,
      "inputs": [
        {
          "name": "transactionId",
          "type": "uint256"
        }
      ],
      "name": "getConfirmations",
      "outputs": [
        {
          "name": "_confirmations",
          "type": "address[]"
        }
      ],
      "payable": false,
      "stateMutability": "view",
      "type": "function"
    },
    {
      "constant": true,
      "inputs": [
        {
          "name": "from",
          "type": "uint256"
        },
        {
          "name": "to",
          "type": "uint256"
        },
        {
          "name": "pending",
          "type": "bool"
        },
        {
          "name": "executed",
          "type": "bool"
        }
      ],
      "name": "getTransactionIds",
      "outputs": [
        {
          "name": "_transactionIds",
          "type": "uint256[]"
        }
      ],
      "payable": false,
      "stateMutability": "view",
      "type": "function"
    }
  ],
  "bytecode": "0x60806040523480156200001157600080fd5b5060405162001ee338038062001ee3833981018060405260408110156200003757600080fd5b8101908080516401000000008111156200005057600080fd5b820160208101848111156200006457600080fd5b81518560208202830111640100000000821117156200008257600080fd5b5050602090910151815191935091508160328211801590620000a45750818111155b8015620000b057508015155b8015620000bc57508115155b6200012857604080517f08c379a000000000000000000000000000000000000000000000000000000000815260206004820152601960248201527f4f776e657220636f756e74206973206e6f742076616c69642100000000000000604482015290519081900360640190fd5b60005b84518110156200025c57600260008683815181106200014657fe5b6020908102919091018101516001600160a01b031682528101919091526040016000205460ff16158015620001a2575060006001600160a01b03168582815181106200018e57fe5b60200260200101516001600160a01b031614155b6200020e57604080517f08c379a000000000000000000000000000000000000000000000000000000000815260206004820181905260248201527f43616e6e6f742063726561746520636f6e7472616374206279206f776e657221604482015290519081900360640190fd5b6001600260008784815181106200022157fe5b6020908102919091018101516001600160a01b03168252810191909152604001600020805460ff19169115159190911790556001016200012b565b508351620002729060039060208701906200027f565b5050506004555062000313565b828054828255906000526020600020908101928215620002d7579160200282015b82811115620002d757825182546001600160a01b0319166001600160a01b03909116178255602090920191600190910190620002a0565b50620002e5929150620002e9565b5090565b6200031091905b80821115620002e55780546001600160a01b0319168155600101620002f0565b90565b611bc080620003236000396000f3fe60806040526004361061012a5760003560e01c8063a0e67e2b116100ab578063c01a8c841161006f578063c01a8c8414610534578063c64274741461055e578063d74f8edd14610626578063dc8452cd1461063b578063e20056e614610650578063ee22610b1461068b5761012a565b8063a0e67e2b14610426578063a8abe69a1461048b578063b5dc40c3146104cb578063b77bf600146104f5578063ba51a6df1461050a5761012a565b806354741525116100f2578063547415251461028c5780637065cb48146102d2578063784547a7146103055780638b51d13f1461032f5780639ace38c2146103595761012a565b8063025e7c2714610169578063173825d9146101af57806320ea8d86146101e25780632f54bf6e1461020c5780633411c81c14610253575b34156101675760408051348152905133917fe1fffcc4923d04b559f4d29a8bfc6cda04eb5b0d3c460751c2402c5c5cc9109c919081900360200190a25b005b34801561017557600080fd5b506101936004803603602081101561018c57600080fd5b50356106b5565b604080516001600160a01b039092168252519081900360200190f35b3480156101bb57600080fd5b50610167600480360360208110156101d257600080fd5b50356001600160a01b03166106dc565b3480156101ee57600080fd5b506101676004803603602081101561020557600080fd5b50356108bf565b34801561021857600080fd5b5061023f6004803603602081101561022f57600080fd5b50356001600160a01b0316610a4d565b604080519115158252519081900360200190f35b34801561025f57600080fd5b5061023f6004803603604081101561027657600080fd5b50803590602001356001600160a01b0316610a62565b34801561029857600080fd5b506102c0600480360360408110156102af57600080fd5b508035151590602001351515610a82565b60408051918252519081900360200190f35b3480156102de57600080fd5b50610167600480360360208110156102f557600080fd5b50356001600160a01b0316610aee565b34801561031157600080fd5b5061023f6004803603602081101561032857600080fd5b5035610d0e565b34801561033b57600080fd5b506102c06004803603602081101561035257600080fd5b5035610d95565b34801561036557600080fd5b506103836004803603602081101561037c57600080fd5b5035610e04565b60405180856001600160a01b03166001600160a01b031681526020018481526020018060200183151515158152602001828103825284818151815260200191508051906020019080838360005b838110156103e85781810151838201526020016103d0565b50505050905090810190601f1680156104155780820380516001836020036101000a031916815260200191505b509550505050505060405180910390f35b34801561043257600080fd5b5061043b610ec2565b60408051602080825283518183015283519192839290830191858101910280838360005b8381101561047757818101518382015260200161045f565b505050509050019250505060405180910390f35b34801561049757600080fd5b5061043b600480360360808110156104ae57600080fd5b508035906020810135906040810135151590606001351515610f25565b3480156104d757600080fd5b5061043b600480360360208110156104ee57600080fd5b5035611050565b34801561050157600080fd5b506102c06111c7565b34801561051657600080fd5b506101676004803603602081101561052d57600080fd5b50356111cd565b34801561054057600080fd5b506101676004803603602081101561055757600080fd5b50356112ca565b34801561056a57600080fd5b506102c06004803603606081101561058157600080fd5b6001600160a01b03823516916020810135918101906060810160408201356401000000008111156105b157600080fd5b8201836020820111156105c357600080fd5b803590602001918460018302840111640100000000831117156105e557600080fd5b91908080601f016020809104026020016040519081016040528093929190818152602001838380828437600092019190915250929550611453945050505050565b34801561063257600080fd5b506102c0611472565b34801561064757600080fd5b506102c0611477565b34801561065c57600080fd5b506101676004803603604081101561067357600080fd5b506001600160a01b038135811691602001351661147d565b34801561069757600080fd5b50610167600480360360208110156106ae57600080fd5b50356116bc565b600381815481106106c257fe5b6000918252602090912001546001600160a01b0316905081565b33301461071d57604051600160e51b62461bcd028152600401808060200182810382526022815260200180611b736022913960400191505060405180910390fd5b6001600160a01b038116600090815260026020526040902054819060ff166107865760408051600160e51b62461bcd0281526020600482015260116024820152600160781b704f776e6572206e6f74206578697374732102604482015290519081900360640190fd5b6001600160a01b0382166000908152600260205260408120805460ff191690555b6003546000190181101561085a57826001600160a01b0316600382815481106107cc57fe5b6000918252602090912001546001600160a01b03161415610852576003805460001981019081106107f957fe5b600091825260209091200154600380546001600160a01b03909216918390811061081f57fe5b9060005260206000200160006101000a8154816001600160a01b0302191690836001600160a01b0316021790555061085a565b6001016107a7565b5060038054600019019061086e9082611a90565b50600354600454111561088757600354610887906111cd565b6040516001600160a01b038316907f8001553a916ef2f495d26a907cc54d96ed840d7bda71e73194bf5a9df7a76b9090600090a25050565b3360008181526002602052604090205460ff1661091d5760408051600160e51b62461bcd0281526020600482015260116024820152600160781b704f776e6572206e6f74206578697374732102604482015290519081900360640190fd5b60008281526001602090815260408083203380855292529091205483919060ff166109925760408051600160e51b62461bcd02815260206004820152601d60248201527f5472616e73616374696f6e206973206e6f7420636f6e6669726d656421000000604482015290519081900360640190fd5b600084815260208190526040902060030154849060ff16156109fe5760408051600160e51b62461bcd02815260206004820181905260248201527f5472616e73616374696f6e20697320616c726561647920657865637574656421604482015290519081900360640190fd5b6000858152600160209081526040808320338085529252808320805460ff191690555187927ff6a317157440607f36269043eb55f1287a5a19ba2216afeab88cd46cbcfb88e991a35050505050565b60026020526000908152604090205460ff1681565b600160209081526000928352604080842090915290825290205460ff1681565b6000805b600554811015610ae757838015610aaf575060008181526020819052604090206003015460ff16155b80610ad35750828015610ad3575060008181526020819052604090206003015460ff165b15610adf576001820191505b600101610a86565b5092915050565b333014610b2f57604051600160e51b62461bcd028152600401808060200182810382526022815260200180611b736022913960400191505060405180910390fd5b6001600160a01b038116600090815260026020526040902054819060ff1615610ba25760408051600160e51b62461bcd02815260206004820152601560248201527f4f776e657220616c726561647920657869737473210000000000000000000000604482015290519081900360640190fd5b816001600160a01b038116610bf75760408051600160e51b62461bcd0281526020600482015260106024820152600160801b6f41646472657373206973206e756c6c2102604482015290519081900360640190fd5b60038054905060010160045460328211158015610c145750818111155b8015610c1f57508015155b8015610c2a57508115155b610c7e5760408051600160e51b62461bcd02815260206004820152601960248201527f4f776e657220636f756e74206973206e6f742076616c69642100000000000000604482015290519081900360640190fd5b6001600160a01b038516600081815260026020526040808220805460ff1916600190811790915560038054918201815583527fc2575a0e9e593c00f959f8c92f12db2869c3395a3b0502d05e2516446f71f85b0180546001600160a01b03191684179055517ff39e6e1eb0edcf53c221607b54b00cd28f3196fed0a24994dc308b8f611b682d9190a25050505050565b600080805b600354811015610d8d5760008481526001602052604081206003805491929184908110610d3c57fe5b60009182526020808320909101546001600160a01b0316835282019290925260400190205460ff1615610d70576001820191505b600454821415610d8557600192505050610d90565b600101610d13565b50505b919050565b6000805b600354811015610dfe5760008381526001602052604081206003805491929184908110610dc257fe5b60009182526020808320909101546001600160a01b0316835282019290925260400190205460ff1615610df6576001820191505b600101610d99565b50919050565b6000602081815291815260409081902080546001808301546002808501805487516101009582161595909502600019011691909104601f81018890048802840188019096528583526001600160a01b0390931695909491929190830182828015610eaf5780601f10610e8457610100808354040283529160200191610eaf565b820191906000526020600020905b815481529060010190602001808311610e9257829003601f168201915b5050506003909301549192505060ff1684565b60606003805480602002602001604051908101604052809291908181526020018280548015610f1a57602002820191906000526020600020905b81546001600160a01b03168152600190910190602001808311610efc575b505050505090505b90565b606080600554604051908082528060200260200182016040528015610f54578160200160208202803883390190505b5090506000805b600554811015610fd557858015610f84575060008181526020819052604090206003015460ff16155b80610fa85750848015610fa8575060008181526020819052604090206003015460ff165b15610fcd5780838381518110610fba57fe5b6020026020010181815250506001820191505b600101610f5b565b878703604051908082528060200260200182016040528015611001578160200160208202803883390190505b5093508790505b868110156110455782818151811061101c57fe5b6020026020010151848983038151811061103257fe5b6020908102919091010152600101611008565b505050949350505050565b606080600380549050604051908082528060200260200182016040528015611082578160200160208202803883390190505b5090506000805b60035481101561114557600085815260016020526040812060038054919291849081106110b257fe5b60009182526020808320909101546001600160a01b0316835282019290925260400190205460ff161561113d57600381815481106110ec57fe5b9060005260206000200160009054906101000a90046001600160a01b031683838151811061111657fe5b60200260200101906001600160a01b031690816001600160a01b0316815250506001820191505b600101611089565b8160405190808252806020026020018201604052801561116f578160200160208202803883390190505b509350600090505b818110156111bf5782818151811061118b57fe5b602002602001015184828151811061119f57fe5b6001600160a01b0390921660209283029190910190910152600101611177565b505050919050565b60055481565b33301461120e57604051600160e51b62461bcd028152600401808060200182810382526022815260200180611b736022913960400191505060405180910390fd5b60035481603282118015906112235750818111155b801561122e57508015155b801561123957508115155b61128d5760408051600160e51b62461bcd02815260206004820152601960248201527f4f776e657220636f756e74206973206e6f742076616c69642100000000000000604482015290519081900360640190fd5b60048390556040805184815290517fa3f1ee9126a074d9326c682f561767f710e927faa811f7a99829d49dc421797a9181900360200190a1505050565b3360008181526002602052604090205460ff166113285760408051600160e51b62461bcd0281526020600482015260116024820152600160781b704f776e6572206e6f74206578697374732102604482015290519081900360640190fd5b60008281526020819052604090205482906001600160a01b03166113965760408051600160e51b62461bcd02815260206004820152601760248201527f5472616e73616374696f6e206e6f742065786973747321000000000000000000604482015290519081900360640190fd5b60008381526001602090815260408083203380855292529091205484919060ff16156113f657604051600160e51b62461bcd028152600401808060200182810382526021815260200180611b526021913960400191505060405180910390fd5b6000858152600160208181526040808420338086529252808420805460ff1916909317909255905187927f4a504a94899432a9846e1aa406dceb1bcfd538bb839071d49d1e5e23f5be30ef91a361144c856116bc565b5050505050565b600061146084848461194b565b905061146b816112ca565b9392505050565b603281565b60045481565b3330146114be57604051600160e51b62461bcd028152600401808060200182810382526022815260200180611b736022913960400191505060405180910390fd5b6001600160a01b038216600090815260026020526040902054829060ff166115275760408051600160e51b62461bcd0281526020600482015260116024820152600160781b704f776e6572206e6f74206578697374732102604482015290519081900360640190fd5b6001600160a01b038216600090815260026020526040902054829060ff161561159a5760408051600160e51b62461bcd02815260206004820152601560248201527f4f776e657220616c726561647920657869737473210000000000000000000000604482015290519081900360640190fd5b60005b60035481101561162257846001600160a01b0316600382815481106115be57fe5b6000918252602090912001546001600160a01b0316141561161a5783600382815481106115e757fe5b9060005260206000200160006101000a8154816001600160a01b0302191690836001600160a01b03160217905550611622565b60010161159d565b506001600160a01b03808516600081815260026020526040808220805460ff1990811690915593871682528082208054909416600117909355915190917f8001553a916ef2f495d26a907cc54d96ed840d7bda71e73194bf5a9df7a76b9091a26040516001600160a01b038416907ff39e6e1eb0edcf53c221607b54b00cd28f3196fed0a24994dc308b8f611b682d90600090a250505050565b3360008181526002602052604090205460ff1661171a5760408051600160e51b62461bcd0281526020600482015260116024820152600160781b704f776e6572206e6f74206578697374732102604482015290519081900360640190fd5b60008281526001602090815260408083203380855292529091205483919060ff1661178f5760408051600160e51b62461bcd02815260206004820152601d60248201527f5472616e73616374696f6e206973206e6f7420636f6e6669726d656421000000604482015290519081900360640190fd5b600084815260208190526040902060030154849060ff16156117fb5760408051600160e51b62461bcd02815260206004820181905260248201527f5472616e73616374696f6e20697320616c726561647920657865637574656421604482015290519081900360640190fd5b61180485610d0e565b1561144c576000858152602081815260409182902060038101805460ff19166001908117909155815481830154600280850180548851601f6000199783161561010002979097019091169290920494850187900487028201870190975283815293956118d6956001600160a01b039093169491939283908301828280156118cc5780601f106118a1576101008083540402835291602001916118cc565b820191906000526020600020905b8154815290600101906020018083116118af57829003601f168201915b5050505050611a6d565b1561190b5760405186907f33e13ecb54c3076d8e8bb8c2881800a4d972b792045ffae98fdf46df365fed7590600090a2611943565b60405186907f526441bb6c1aba3c9a4a6ca1d6545da9c2333c8c48343ef398eb858d72b7923690600090a260038101805460ff191690555b505050505050565b6000836001600160a01b0381166119a25760408051600160e51b62461bcd0281526020600482015260106024820152600160801b6f41646472657373206973206e756c6c2102604482015290519081900360640190fd5b600554604080516080810182526001600160a01b038881168252602080830189815283850189815260006060860181905287815280845295909520845181546001600160a01b03191694169390931783555160018301559251805194965091939092611a15926002850192910190611ab9565b50606091909101516003909101805460ff191691151591909117905560058054600101905560405182907fc0ba8fe4b176c1714197d43b9cc6bcf797a4a7461c5fe8d0ef6e184ae7601e5190600090a2509392505050565b6000806040516020840160008287838a8c6187965a03f198975050505050505050565b815481835581811115611ab457600083815260209020611ab4918101908301611b37565b505050565b828054600181600116156101000203166002900490600052602060002090601f016020900481019282601f10611afa57805160ff1916838001178555611b27565b82800160010185558215611b27579182015b82811115611b27578251825591602001919060010190611b0c565b50611b33929150611b37565b5090565b610f2291905b80821115611b335760008155600101611b3d56fe5472616e73616374696f6e20697320616c726561647920636f6e6669726d6564214f6e6c792077616c6c65742063616e206d616b65207472616e73616374696f6e7321a165627a7a72305820e4c33e4570f7fe3ab48d24703b446937710c6348d9d141cce939091e2daecb970029",
  "source": "pragma solidity ^0.5.0;\n\n\n/// @title Multisignature wallet - Allows multiple parties to agree on transactions before execution.\n/// @author Stefan George - <stefan.george@consensys.net>\ncontract MultiSigWallet {\n\n    /*\n     *  Events\n     */\n    event Confirmation(address indexed sender, uint indexed transactionId);\n    event Revocation(address indexed sender, uint indexed transactionId);\n    event Submission(uint indexed transactionId);\n    event Execution(uint indexed transactionId);\n    event ExecutionFailure(uint indexed transactionId);\n    event Deposit(address indexed sender, uint value);\n    event OwnerAddition(address indexed owner);\n    event OwnerRemoval(address indexed owner);\n    event RequirementChange(uint required);\n\n    /*\n     *  Constants\n     */\n    uint constant public MAX_OWNER_COUNT = 50;\n\n    /*\n     *  Storage\n     */\n    mapping (uint => Transaction) public transactions;\n    mapping (uint => mapping (address => bool)) public confirmations;\n    mapping (address => bool) public isOwner;\n    address[] public owners;\n    uint public required;\n    uint public transactionCount;\n\n    struct Transaction {\n        address destination;\n        uint value;\n        bytes data;\n        bool executed;\n    }\n\n    /*\n     *  Modifiers\n     */\n    modifier onlyWallet() {\n        require(msg.sender == address(this), \"Only wallet can make transactions!\");\n        _;\n    }\n\n    modifier ownerDoesNotExist(address owner) {\n        require(!isOwner[owner], \"Owner already exists!\");\n        _;\n    }\n\n    modifier ownerExists(address owner) {\n        require(isOwner[owner], \"Owner not exists!\");\n        _;\n    }\n\n    modifier transactionExists(uint transactionId) {\n        require(transactions[transactionId].destination != address(0), \"Transaction not exists!\");\n        _;\n    }\n\n    modifier confirmed(uint transactionId, address owner) {\n        require(confirmations[transactionId][owner], \"Transaction is not confirmed!\");\n        _;\n    }\n\n    modifier notConfirmed(uint transactionId, address owner) {\n        require(!confirmations[transactionId][owner], \"Transaction is already confirmed!\");\n        _;\n    }\n\n    modifier notExecuted(uint transactionId) {\n        require(!transactions[transactionId].executed, \"Transaction is already executed!\");\n        _;\n    }\n\n    modifier notNull(address _address) {\n        require(_address != address(0), \"Address is null!\");\n        _;\n    }\n\n    modifier validRequirement(uint ownerCount, uint _required) {\n        require(ownerCount <= MAX_OWNER_COUNT\n            && _required <= ownerCount\n            && _required != 0\n            && ownerCount != 0, \"Owner count is not valid!\");\n        _;\n    }\n\n    /// @dev Fallback function allows to deposit ether.\n    function() external payable\n    {\n        if (msg.value > 0)\n           emit Deposit(msg.sender, msg.value);\n    }\n\n    /*\n     * Public functions\n     */\n    /// @dev Contract constructor sets initial owners and required number of confirmations.\n    /// @param _owners List of initial owners.\n    /// @param _required Number of required confirmations.\n    constructor(address[] memory _owners, uint _required)\n        public\n        validRequirement(_owners.length, _required)\n    {\n        for (uint i=0; i<_owners.length; i++) {\n            require(!isOwner[_owners[i]] && _owners[i] != address(0), \"Cannot create contract by owner!\");\n            isOwner[_owners[i]] = true;\n        }\n        owners = _owners;\n        required = _required;\n    }\n\n    /// @dev Allows to add a new owner. Transaction has to be sent by wallet.\n    /// @param owner Address of new owner.\n    function addOwner(address owner)\n        public\n        onlyWallet\n        ownerDoesNotExist(owner)\n        notNull(owner)\n        validRequirement(owners.length + 1, required)\n    {\n        isOwner[owner] = true;\n        owners.push(owner);\n        emit OwnerAddition(owner);\n    }\n\n    /// @dev Allows to remove an owner. Transaction has to be sent by wallet.\n    /// @param owner Address of owner.\n    function removeOwner(address owner)\n        public\n        onlyWallet\n        ownerExists(owner)\n    {\n        isOwner[owner] = false;\n        for (uint i=0; i<owners.length - 1; i++)\n            if (owners[i] == owner) {\n                owners[i] = owners[owners.length - 1];\n                break;\n            }\n        owners.length -= 1;\n        if (required > owners.length)\n            changeRequirement(owners.length);\n        emit OwnerRemoval(owner);\n    }\n\n    /// @dev Allows to replace an owner with a new owner. Transaction has to be sent by wallet.\n    /// @param owner Address of owner to be replaced.\n    /// @param newOwner Address of new owner.\n    function replaceOwner(address owner, address newOwner)\n        public\n        onlyWallet\n        ownerExists(owner)\n        ownerDoesNotExist(newOwner)\n    {\n        for (uint i=0; i<owners.length; i++)\n            if (owners[i] == owner) {\n                owners[i] = newOwner;\n                break;\n            }\n        isOwner[owner] = false;\n        isOwner[newOwner] = true;\n        emit OwnerRemoval(owner);\n        emit OwnerAddition(newOwner);\n    }\n\n    /// @dev Allows to change the number of required confirmations. Transaction has to be sent by wallet.\n    /// @param _required Number of required confirmations.\n    function changeRequirement(uint _required)\n        public\n        onlyWallet\n        validRequirement(owners.length, _required)\n    {\n        required = _required;\n        emit RequirementChange(_required);\n    }\n\n    /// @dev Allows an owner to submit and confirm a transaction.\n    /// @param destination Transaction target address.\n    /// @param value Transaction ether value.\n    /// @param data Transaction data payload.\n    /// @return Returns transaction ID.\n    function submitTransaction(address destination, uint value, bytes memory data)\n        public\n        returns (uint transactionId)\n    {\n        transactionId = addTransaction(destination, value, data);\n        confirmTransaction(transactionId);\n    }\n\n    /// @dev Allows an owner to confirm a transaction.\n    /// @param transactionId Transaction ID.\n    function confirmTransaction(uint transactionId)\n        public\n        ownerExists(msg.sender)\n        transactionExists(transactionId)\n        notConfirmed(transactionId, msg.sender)\n    {\n        confirmations[transactionId][msg.sender] = true;\n        emit Confirmation(msg.sender, transactionId);\n        executeTransaction(transactionId);\n    }\n\n    /// @dev Allows an owner to revoke a confirmation for a transaction.\n    /// @param transactionId Transaction ID.\n    function revokeConfirmation(uint transactionId)\n        public\n        ownerExists(msg.sender)\n        confirmed(transactionId, msg.sender)\n        notExecuted(transactionId)\n    {\n        confirmations[transactionId][msg.sender] = false;\n        emit Revocation(msg.sender, transactionId);\n    }\n\n    /// @dev Allows anyone to execute a confirmed transaction.\n    /// @param transactionId Transaction ID.\n    function executeTransaction(uint transactionId)\n        public\n        ownerExists(msg.sender)\n        confirmed(transactionId, msg.sender)\n        notExecuted(transactionId)\n    {\n        if (isConfirmed(transactionId)) {\n            Transaction storage txn = transactions[transactionId];\n            txn.executed = true;\n            if (external_call(txn.destination, txn.value, txn.data.length, txn.data))\n                emit Execution(transactionId);\n            else {\n                emit ExecutionFailure(transactionId);\n                txn.executed = false;\n            }\n        }\n    }\n\n    // call has been separated into its own function in order to take advantage\n    // of the Solidity's code generator to produce a loop that copies tx.data into memory.\n    function external_call(address destination, uint value, uint dataLength, bytes memory data) internal returns (bool) {\n        bool result;\n        assembly {\n            let x := mload(0x40)   // \"Allocate\" memory for output (0x40 is where \"free memory\" pointer is stored by convention)\n            let d := add(data, 32) // First 32 bytes are the padded length of data, so exclude that\n            result := call(\n                sub(gas, 34710),   // 34710 is the value that solidity is currently emitting\n                                   // It includes callGas (700) + callVeryLow (3, to pay for SUB) + callValueTransferGas (9000) +\n                                   // callNewAccountGas (25000, in case the destination address does not exist and needs creating)\n                destination,\n                value,\n                d,\n                dataLength,        // Size of the input (in bytes) - this is what fixes the padding problem\n                x,\n                0                  // Output is ignored, therefore the output size is zero\n            )\n        }\n        return result;\n    }\n\n    /// @dev Returns the confirmation status of a transaction.\n    /// @param transactionId Transaction ID.\n    /// @return Confirmation status.\n    function isConfirmed(uint transactionId)\n        public\n        view\n        returns (bool)\n    {\n        uint count = 0;\n        for (uint i=0; i<owners.length; i++) {\n            if (confirmations[transactionId][owners[i]])\n                count += 1;\n            if (count == required)\n                return true;\n        }\n    }\n\n    /*\n     * Internal functions\n     */\n    /// @dev Adds a new transaction to the transaction mapping, if transaction does not exist yet.\n    /// @param destination Transaction target address.\n    /// @param value Transaction ether value.\n    /// @param data Transaction data payload.\n    /// @return Returns transaction ID.\n    function addTransaction(address destination, uint value, bytes memory data)\n        internal\n        notNull(destination)\n        returns (uint transactionId)\n    {\n        transactionId = transactionCount;\n        transactions[transactionId] = Transaction({\n            destination: destination,\n            value: value,\n            data: data,\n            executed: false\n        });\n        transactionCount += 1;\n        emit Submission(transactionId);\n    }\n\n    /*\n     * Web3 call functions\n     */\n    /// @dev Returns number of confirmations of a transaction.\n    /// @param transactionId Transaction ID.\n    /// @return Number of confirmations.\n    function getConfirmationCount(uint transactionId)\n        public\n        view\n        returns (uint count)\n    {\n        for (uint i=0; i<owners.length; i++)\n            if (confirmations[transactionId][owners[i]])\n                count += 1;\n    }\n\n    /// @dev Returns total number of transactions after filers are applied.\n    /// @param pending Include pending transactions.\n    /// @param executed Include executed transactions.\n    /// @return Total number of transactions after filters are applied.\n    function getTransactionCount(bool pending, bool executed)\n        public\n        view\n        returns (uint count)\n    {\n        for (uint i=0; i<transactionCount; i++)\n            if (   pending && !transactions[i].executed\n                || executed && transactions[i].executed)\n                count += 1;\n    }\n\n    /// @dev Returns list of owners.\n    /// @return List of owner addresses.\n    function getOwners()\n        public\n        view\n        returns (address[] memory)\n    {\n        return owners;\n    }\n\n    /// @dev Returns array with owner addresses, which confirmed transaction.\n    /// @param transactionId Transaction ID.\n    /// @return Returns array of owner addresses.\n    function getConfirmations(uint transactionId)\n        public\n        view\n        returns (address[] memory _confirmations)\n    {\n        address[] memory confirmationsTemp = new address[](owners.length);\n        uint count = 0;\n        uint i;\n        for (i=0; i<owners.length; i++)\n            if (confirmations[transactionId][owners[i]]) {\n                confirmationsTemp[count] = owners[i];\n                count += 1;\n            }\n        _confirmations = new address[](count);\n        for (i=0; i<count; i++)\n            _confirmations[i] = confirmationsTemp[i];\n    }\n\n    /// @dev Returns list of transaction IDs in defined range.\n    /// @param from Index start position of transaction array.\n    /// @param to Index end position of transaction array.\n    /// @param pending Include pending transactions.\n    /// @param executed Include executed transactions.\n    /// @return Returns array of transaction IDs.\n    function getTransactionIds(uint from, uint to, bool pending, bool executed)\n        public\n        view\n        returns (uint[] memory _transactionIds)\n    {\n        uint[] memory transactionIdsTemp = new uint[](transactionCount);\n        uint count = 0;\n        uint i;\n        for (i=0; i<transactionCount; i++)\n            if (   pending && !transactions[i].executed\n                || executed && transactions[i].executed)\n            {\n                transactionIdsTemp[count] = i;\n                count += 1;\n            }\n        _transactionIds = new uint[](to - from);\n        for (i=from; i<to; i++)\n            _transactionIds[i - from] = transactionIdsTemp[i];\n    }\n}",
  "sourcePath": "/home/intfloatbool//CrowdSale_MyContract/contracts/MultiSigWallet.sol",
  "compiler": {
    "name": "solc",
    "version": "0.5.8+commit.23d335f2.Emscripten.clang"
  },
  "schemaVersion": "3.0.17",
  "updatedAt": "2019-11-12T15:26:30.688Z",
  "devdoc": {
    "author": "Stefan George - <stefan.george@consensys.net>",
    "methods": {
      "addOwner(address)": {
        "details": "Allows to add a new owner. Transaction has to be sent by wallet.",
        "params": {
          "owner": "Address of new owner."
        }
      },
      "changeRequirement(uint256)": {
        "details": "Allows to change the number of required confirmations. Transaction has to be sent by wallet.",
        "params": {
          "_required": "Number of required confirmations."
        }
      },
      "confirmTransaction(uint256)": {
        "details": "Allows an owner to confirm a transaction.",
        "params": {
          "transactionId": "Transaction ID."
        }
      },
      "constructor": {
        "details": "Contract constructor sets initial owners and required number of confirmations.",
        "params": {
          "_owners": "List of initial owners.",
          "_required": "Number of required confirmations."
        }
      },
      "executeTransaction(uint256)": {
        "details": "Allows anyone to execute a confirmed transaction.",
        "params": {
          "transactionId": "Transaction ID."
        }
      },
      "getConfirmationCount(uint256)": {
        "details": "Returns number of confirmations of a transaction.",
        "params": {
          "transactionId": "Transaction ID."
        },
        "return": "Number of confirmations."
      },
      "getConfirmations(uint256)": {
        "details": "Returns array with owner addresses, which confirmed transaction.",
        "params": {
          "transactionId": "Transaction ID."
        },
        "return": "Returns array of owner addresses."
      },
      "getOwners()": {
        "details": "Returns list of owners.",
        "return": "List of owner addresses."
      },
      "getTransactionCount(bool,bool)": {
        "details": "Returns total number of transactions after filers are applied.",
        "params": {
          "executed": "Include executed transactions.",
          "pending": "Include pending transactions."
        },
        "return": "Total number of transactions after filters are applied."
      },
      "getTransactionIds(uint256,uint256,bool,bool)": {
        "details": "Returns list of transaction IDs in defined range.",
        "params": {
          "executed": "Include executed transactions.",
          "from": "Index start position of transaction array.",
          "pending": "Include pending transactions.",
          "to": "Index end position of transaction array."
        },
        "return": "Returns array of transaction IDs."
      },
      "isConfirmed(uint256)": {
        "details": "Returns the confirmation status of a transaction.",
        "params": {
          "transactionId": "Transaction ID."
        },
        "return": "Confirmation status."
      },
      "removeOwner(address)": {
        "details": "Allows to remove an owner. Transaction has to be sent by wallet.",
        "params": {
          "owner": "Address of owner."
        }
      },
      "replaceOwner(address,address)": {
        "details": "Allows to replace an owner with a new owner. Transaction has to be sent by wallet.",
        "params": {
          "newOwner": "Address of new owner.",
          "owner": "Address of owner to be replaced."
        }
      },
      "revokeConfirmation(uint256)": {
        "details": "Allows an owner to revoke a confirmation for a transaction.",
        "params": {
          "transactionId": "Transaction ID."
        }
      },
      "submitTransaction(address,uint256,bytes)": {
        "details": "Allows an owner to submit and confirm a transaction.",
        "params": {
          "data": "Transaction data payload.",
          "destination": "Transaction target address.",
          "value": "Transaction ether value."
        },
        "return": "Returns transaction ID."
      }
    },
    "title": "Multisignature wallet - Allows multiple parties to agree on transactions before execution."
  },
  "userdoc": {
    "methods": {}
  }
}