{
  "contractName": "MultiSigSplittedWallet",
  "abi": [
    {
      "constant": true,
      "inputs": [
        {
          "name": "",
          "type": "uint256"
        },
        {
          "name": "",
          "type": "address"
        }
      ],
      "name": "confirmations",
      "outputs": [
        {
          "name": "",
          "type": "bool"
        }
      ],
      "payable": false,
      "stateMutability": "view",
      "type": "function"
    },
    {
      "constant": true,
      "inputs": [],
      "name": "totalShares",
      "outputs": [
        {
          "name": "",
          "type": "uint256"
        }
      ],
      "payable": false,
      "stateMutability": "view",
      "type": "function"
    },
    {
      "constant": true,
      "inputs": [
        {
          "name": "account",
          "type": "address"
        }
      ],
      "name": "getPaymentAmount",
      "outputs": [
        {
          "name": "",
          "type": "uint256"
        }
      ],
      "payable": false,
      "stateMutability": "view",
      "type": "function"
    },
    {
      "constant": true,
      "inputs": [
        {
          "name": "account",
          "type": "address"
        }
      ],
      "name": "isSigner",
      "outputs": [
        {
          "name": "",
          "type": "bool"
        }
      ],
      "payable": false,
      "stateMutability": "view",
      "type": "function"
    },
    {
      "constant": true,
      "inputs": [
        {
          "name": "index",
          "type": "uint256"
        }
      ],
      "name": "payee",
      "outputs": [
        {
          "name": "",
          "type": "address"
        }
      ],
      "payable": false,
      "stateMutability": "view",
      "type": "function"
    },
    {
      "constant": true,
      "inputs": [
        {
          "name": "account",
          "type": "address"
        }
      ],
      "name": "released",
      "outputs": [
        {
          "name": "",
          "type": "uint256"
        }
      ],
      "payable": false,
      "stateMutability": "view",
      "type": "function"
    },
    {
      "constant": true,
      "inputs": [
        {
          "name": "",
          "type": "uint256"
        }
      ],
      "name": "transactions",
      "outputs": [
        {
          "name": "destination",
          "type": "address"
        },
        {
          "name": "executed",
          "type": "bool"
        }
      ],
      "payable": false,
      "stateMutability": "view",
      "type": "function"
    },
    {
      "constant": true,
      "inputs": [],
      "name": "transactionCount",
      "outputs": [
        {
          "name": "",
          "type": "uint256"
        }
      ],
      "payable": false,
      "stateMutability": "view",
      "type": "function"
    },
    {
      "constant": true,
      "inputs": [
        {
          "name": "account",
          "type": "address"
        }
      ],
      "name": "shares",
      "outputs": [
        {
          "name": "",
          "type": "uint256"
        }
      ],
      "payable": false,
      "stateMutability": "view",
      "type": "function"
    },
    {
      "constant": true,
      "inputs": [],
      "name": "required",
      "outputs": [
        {
          "name": "",
          "type": "uint256"
        }
      ],
      "payable": false,
      "stateMutability": "view",
      "type": "function"
    },
    {
      "constant": true,
      "inputs": [],
      "name": "totalReleased",
      "outputs": [
        {
          "name": "",
          "type": "uint256"
        }
      ],
      "payable": false,
      "stateMutability": "view",
      "type": "function"
    },
    {
      "constant": false,
      "inputs": [],
      "name": "renounceSigner",
      "outputs": [],
      "payable": false,
      "stateMutability": "nonpayable",
      "type": "function"
    },
    {
      "constant": false,
      "inputs": [
        {
          "name": "account",
          "type": "address"
        }
      ],
      "name": "addSigner",
      "outputs": [],
      "payable": false,
      "stateMutability": "nonpayable",
      "type": "function"
    },
    {
      "inputs": [
        {
          "name": "payees",
          "type": "address[]"
        },
        {
          "name": "shares",
          "type": "uint256[]"
        }
      ],
      "payable": false,
      "stateMutability": "nonpayable",
      "type": "constructor"
    },
    {
      "payable": true,
      "stateMutability": "payable",
      "type": "fallback"
    },
    {
      "anonymous": false,
      "inputs": [
        {
          "indexed": true,
          "name": "sender",
          "type": "address"
        },
        {
          "indexed": true,
          "name": "transactionId",
          "type": "uint256"
        }
      ],
      "name": "Confirmation",
      "type": "event"
    },
    {
      "anonymous": false,
      "inputs": [
        {
          "indexed": true,
          "name": "sender",
          "type": "address"
        },
        {
          "indexed": true,
          "name": "transactionId",
          "type": "uint256"
        }
      ],
      "name": "Revocation",
      "type": "event"
    },
    {
      "anonymous": false,
      "inputs": [
        {
          "indexed": true,
          "name": "transactionId",
          "type": "uint256"
        }
      ],
      "name": "Submission",
      "type": "event"
    },
    {
      "anonymous": false,
      "inputs": [
        {
          "indexed": true,
          "name": "transactionId",
          "type": "uint256"
        }
      ],
      "name": "Execution",
      "type": "event"
    },
    {
      "anonymous": false,
      "inputs": [
        {
          "indexed": true,
          "name": "transactionId",
          "type": "uint256"
        }
      ],
      "name": "ExecutionFailure",
      "type": "event"
    },
    {
      "anonymous": false,
      "inputs": [
        {
          "indexed": true,
          "name": "account",
          "type": "address"
        }
      ],
      "name": "SignerAdded",
      "type": "event"
    },
    {
      "anonymous": false,
      "inputs": [
        {
          "indexed": true,
          "name": "account",
          "type": "address"
        }
      ],
      "name": "SignerRemoved",
      "type": "event"
    },
    {
      "anonymous": false,
      "inputs": [
        {
          "indexed": false,
          "name": "account",
          "type": "address"
        },
        {
          "indexed": false,
          "name": "shares",
          "type": "uint256"
        }
      ],
      "name": "PayeeAdded",
      "type": "event"
    },
    {
      "anonymous": false,
      "inputs": [
        {
          "indexed": false,
          "name": "to",
          "type": "address"
        },
        {
          "indexed": false,
          "name": "amount",
          "type": "uint256"
        }
      ],
      "name": "PaymentReleased",
      "type": "event"
    },
    {
      "anonymous": false,
      "inputs": [
        {
          "indexed": false,
          "name": "from",
          "type": "address"
        },
        {
          "indexed": false,
          "name": "amount",
          "type": "uint256"
        }
      ],
      "name": "PaymentReceived",
      "type": "event"
    },
    {
      "constant": false,
      "inputs": [
        {
          "name": "destination",
          "type": "address"
        }
      ],
      "name": "submitTransaction",
      "outputs": [
        {
          "name": "transactionId",
          "type": "uint256"
        }
      ],
      "payable": false,
      "stateMutability": "nonpayable",
      "type": "function"
    },
    {
      "constant": false,
      "inputs": [
        {
          "name": "transactionId",
          "type": "uint256"
        }
      ],
      "name": "confirmTransaction",
      "outputs": [],
      "payable": false,
      "stateMutability": "nonpayable",
      "type": "function"
    },
    {
      "constant": false,
      "inputs": [
        {
          "name": "transactionId",
          "type": "uint256"
        }
      ],
      "name": "revokeConfirmation",
      "outputs": [],
      "payable": false,
      "stateMutability": "nonpayable",
      "type": "function"
    },
    {
      "constant": false,
      "inputs": [
        {
          "name": "transactionId",
          "type": "uint256"
        }
      ],
      "name": "executeTransaction",
      "outputs": [],
      "payable": false,
      "stateMutability": "nonpayable",
      "type": "function"
    },
    {
      "constant": true,
      "inputs": [
        {
          "name": "transactionId",
          "type": "uint256"
        }
      ],
      "name": "isConfirmed",
      "outputs": [
        {
          "name": "",
          "type": "bool"
        }
      ],
      "payable": false,
      "stateMutability": "view",
      "type": "function"
    },
    {
      "constant": true,
      "inputs": [],
      "name": "getBalance",
      "outputs": [
        {
          "name": "",
          "type": "uint256"
        }
      ],
      "payable": false,
      "stateMutability": "view",
      "type": "function"
    }
  ],
  "bytecode": "0x60806040523480156200001157600080fd5b5060405162001abd38038062001abd833981018060405260408110156200003757600080fd5b8101908080516401000000008111156200005057600080fd5b820160208101848111156200006457600080fd5b81518560208202830111640100000000821117156200008257600080fd5b505092919060200180516401000000008111156200009f57600080fd5b82016020810184811115620000b357600080fd5b8151856020820283011164010000000082111715620000d157600080fd5b50509291905050508181805182511462000137576040517f08c379a000000000000000000000000000000000000000000000000000000000815260040180806020018281038252603281526020018062001a606032913960400191505060405180910390fd5b6000825111620001a857604080517f08c379a000000000000000000000000000000000000000000000000000000000815260206004820152601a60248201527f5061796d656e7453706c69747465723a206e6f20706179656573000000000000604482015290519081900360640190fd5b60005b8251811015620001f857620001ef838281518110620001c657fe5b6020026020010151838381518110620001db57fe5b60200260200101516200026560201b60201c565b600101620001ab565b5050506200021b6200020f6200046660201b60201c565b6200046a60201b60201c565b60005b825181101562000256576200024d8382815181106200023957fe5b60200260200101516200046a60201b60201c565b6001016200021e565b5050600454600755506200065f565b6001600160a01b038216620002c6576040517f08c379a000000000000000000000000000000000000000000000000000000000815260040180806020018281038252602c81526020018062001a12602c913960400191505060405180910390fd5b600081116200033657604080517f08c379a000000000000000000000000000000000000000000000000000000000815260206004820152601d60248201527f5061796d656e7453706c69747465723a20736861726573206172652030000000604482015290519081900360640190fd5b6001600160a01b03821660009081526002602052604090205415620003a7576040517f08c379a000000000000000000000000000000000000000000000000000000000815260040180806020018281038252602b81526020018062001a92602b913960400191505060405180910390fd5b60048054600181019091557f8a35acfbc15ff81a39ae7d344fd709f28e8600b4aa8c65c6b64bfe7fe36bd19b0180546001600160a01b0319166001600160a01b0384169081179091556000908152600260209081526040822083905590546200041b918390620004bc811b62000b7b17901c565b600055604080516001600160a01b03841681526020810183905281517f40c340f65e17194d14ddddb073d3c9f888e3cb52b5aae0c6c7706b4fbc905fac929181900390910190a15050565b3390565b620004858160056200053860201b620011ed1790919060201c565b6040516001600160a01b038216907f47d1c22a25bb3a5d4e481b9b1e6944c2eade3181a0a20b495ed61d35b5323f2490600090a250565b6000828201838110156200053157604080517f08c379a000000000000000000000000000000000000000000000000000000000815260206004820152601b60248201527f536166654d6174683a206164646974696f6e206f766572666c6f770000000000604482015290519081900360640190fd5b9392505050565b6200054a8282620005dc60201b60201c565b15620005b757604080517f08c379a000000000000000000000000000000000000000000000000000000000815260206004820152601f60248201527f526f6c65733a206163636f756e7420616c72656164792068617320726f6c6500604482015290519081900360640190fd5b6001600160a01b0316600090815260209190915260409020805460ff19166001179055565b60006001600160a01b0382166200063f576040517f08c379a000000000000000000000000000000000000000000000000000000000815260040180806020018281038252602281526020018062001a3e6022913960400191505060405180910390fd5b506001600160a01b03166000908152602091909152604090205460ff1690565b6113a3806200066f6000396000f3fe6080604052600436106101145760003560e01c80639852595c116100a0578063dc8452cd11610064578063dc8452cd1461040f578063e33b7de314610424578063e5c8b03d14610439578063eb12d61e1461044e578063ee22610b1461048157610114565b80639852595c1461031d5780639ace38c214610350578063b77bf6001461039d578063c01a8c84146103b2578063ce7c2ac2146103dc57610114565b80634b04707a116100e75780634b04707a1461021457806366d651db14610247578063784547a71461027a5780637df73e27146102a45780638b83209b146102d757610114565b806312065fe01461015f57806320ea8d86146101865780633411c81c146101b25780633a98ef39146101ff575b7f6ef95f06320e7a25a04a175ca677b7052bdd97131872c2192525a629f51be77061013d6104ab565b604080516001600160a01b0390921682523460208301528051918290030190a1005b34801561016b57600080fd5b506101746104af565b60408051918252519081900360200190f35b34801561019257600080fd5b506101b0600480360360208110156101a957600080fd5b50356104b4565b005b3480156101be57600080fd5b506101eb600480360360408110156101d557600080fd5b50803590602001356001600160a01b0316610635565b604080519115158252519081900360200190f35b34801561020b57600080fd5b50610174610655565b34801561022057600080fd5b506101746004803603602081101561023757600080fd5b50356001600160a01b031661065b565b34801561025357600080fd5b506101746004803603602081101561026a57600080fd5b50356001600160a01b03166106dd565b34801561028657600080fd5b506101eb6004803603602081101561029d57600080fd5b50356106f3565b3480156102b057600080fd5b506101eb600480360360208110156102c757600080fd5b50356001600160a01b0316610779565b3480156102e357600080fd5b50610301600480360360208110156102fa57600080fd5b5035610792565b604080516001600160a01b039092168252519081900360200190f35b34801561032957600080fd5b506101746004803603602081101561034057600080fd5b50356001600160a01b03166107bc565b34801561035c57600080fd5b5061037a6004803603602081101561037357600080fd5b50356107d7565b604080516001600160a01b03909316835290151560208301528051918290030190f35b3480156103a957600080fd5b506101746107fe565b3480156103be57600080fd5b506101b0600480360360208110156103d557600080fd5b5035610804565b3480156103e857600080fd5b50610174600480360360208110156103ff57600080fd5b50356001600160a01b0316610975565b34801561041b57600080fd5b50610174610990565b34801561043057600080fd5b50610174610996565b34801561044557600080fd5b506101b061099c565b34801561045a57600080fd5b506101b06004803603602081101561047157600080fd5b50356001600160a01b03166109ae565b34801561048d57600080fd5b506101b0600480360360208110156104a457600080fd5b5035610a03565b3390565b303190565b6104c46104bf6104ab565b610779565b61050257604051600160e51b62461bcd0281526004018080602001828103825260308152602001806113486030913960400191505060405180910390fd5b60008181526009602090815260408083203380855292529091205482919060ff166105775760408051600160e51b62461bcd02815260206004820152601d60248201527f5472616e73616374696f6e206973206e6f7420636f6e6669726d656421000000604482015290519081900360640190fd5b6000838152600860205260409020548390600160a01b900460ff16156105e75760408051600160e51b62461bcd02815260206004820181905260248201527f5472616e73616374696f6e20697320616c726561647920657865637574656421604482015290519081900360640190fd5b6000848152600960209081526040808320338085529252808320805460ff191690555186927ff6a317157440607f36269043eb55f1287a5a19ba2216afeab88cd46cbcfb88e991a350505050565b600960209081526000928352604080842090915290825290205460ff1681565b60005490565b60015460009081906106759030319063ffffffff610b7b16565b6001600160a01b038416600090815260036020908152604080832054835460029093529083205493945091926106d392916106c7916106bb90879063ffffffff610bdf16565b9063ffffffff610c3b16565b9063ffffffff610c7d16565b925050505b919050565b60006106e882610cbf565b90506106d881610804565b600080805b600454811015610772576000848152600960205260408120600480549192918490811061072157fe5b60009182526020808320909101546001600160a01b0316835282019290925260400190205460ff1615610755576001820191505b60075482141561076a576001925050506106d8565b6001016106f8565b5050919050565b600061078c60058363ffffffff610db916565b92915050565b6000600482815481106107a157fe5b6000918252602090912001546001600160a01b031692915050565b6001600160a01b031660009081526003602052604090205490565b6008602052600090815260409020546001600160a01b03811690600160a01b900460ff1682565b60065481565b61080f6104bf6104ab565b61084d57604051600160e51b62461bcd0281526004018080602001828103825260308152602001806113486030913960400191505060405180910390fd5b60008181526008602052604090205481906001600160a01b03166108bb5760408051600160e51b62461bcd02815260206004820152601760248201527f5472616e73616374696f6e206e6f742065786973747321000000000000000000604482015290519081900360640190fd5b60008281526009602090815260408083203380855292529091205483919060ff161561091b57604051600160e51b62461bcd0281526004018080602001828103825260218152602001806112726021913960400191505060405180910390fd5b6000848152600960209081526040808320338085529252808320805460ff191660011790555186927f4a504a94899432a9846e1aa406dceb1bcfd538bb839071d49d1e5e23f5be30ef91a361096f84610a03565b50505050565b6001600160a01b031660009081526002602052604090205490565b60075481565b60015490565b6109ac6109a76104ab565b610e23565b565b6109b96104bf6104ab565b6109f757604051600160e51b62461bcd0281526004018080602001828103825260308152602001806113486030913960400191505060405180910390fd5b610a0081610e6b565b50565b610a0e6104bf6104ab565b610a4c57604051600160e51b62461bcd0281526004018080602001828103825260308152602001806113486030913960400191505060405180910390fd5b60008181526009602090815260408083203380855292529091205482919060ff16610ac15760408051600160e51b62461bcd02815260206004820152601d60248201527f5472616e73616374696f6e206973206e6f7420636f6e6669726d656421000000604482015290519081900360640190fd5b6000838152600860205260409020548390600160a01b900460ff1615610b315760408051600160e51b62461bcd02815260206004820181905260248201527f5472616e73616374696f6e20697320616c726561647920657865637574656421604482015290519081900360640190fd5b610b3a846106f3565b1561096f5760008481526008602052604090208054600160a01b60ff021916600160a01b17808255610b74906001600160a01b0316610eb3565b5050505050565b600082820183811015610bd85760408051600160e51b62461bcd02815260206004820152601b60248201527f536166654d6174683a206164646974696f6e206f766572666c6f770000000000604482015290519081900360640190fd5b9392505050565b600082610bee5750600061078c565b82820282848281610bfb57fe5b0414610bd857604051600160e51b62461bcd0281526004018080602001828103825260218152602001806113056021913960400191505060405180910390fd5b6000610bd883836040518060400160405280601a81526020017f536166654d6174683a206469766973696f6e206279207a65726f000000000000815250611081565b6000610bd883836040518060400160405280601e81526020017f536166654d6174683a207375627472616374696f6e206f766572666c6f770000815250611126565b6000816001600160a01b038116610d205760408051600160e51b62461bcd02815260206004820152601060248201527f41646472657373206973206e756c6c2100000000000000000000000000000000604482015290519081900360640190fd5b600680546040805180820182526001600160a01b0380881682526000602080840182815286835260089091528482209351845491511515600160a01b02600160a01b60ff0219919094166001600160a01b031990921691909117169190911790915583546001019093555190935083917fc0ba8fe4b176c1714197d43b9cc6bcf797a4a7461c5fe8d0ef6e184ae7601e5191a250919050565b60006001600160a01b038216610e0357604051600160e51b62461bcd0281526004018080602001828103825260228152602001806113266022913960400191505060405180910390fd5b506001600160a01b03166000908152602091909152604090205460ff1690565b610e3460058263ffffffff61118316565b6040516001600160a01b038216907f3525e22824a8a7df2c9a6029941c824cf95b6447f1e13d5128fd3826d35afe8b90600090a250565b610e7c60058263ffffffff6111ed16565b6040516001600160a01b038216907f47d1c22a25bb3a5d4e481b9b1e6944c2eade3181a0a20b495ed61d35b5323f2490600090a250565b6001600160a01b038116600090815260026020526040902054610f0a57604051600160e51b62461bcd0281526004018080602001828103825260268152602001806112936026913960400191505060405180910390fd5b600154600090610f229030319063ffffffff610b7b16565b6001600160a01b03831660009081526003602090815260408083205483546002909352908320549394509192610f6892916106c7916106bb90879063ffffffff610bdf16565b905080610fa957604051600160e51b62461bcd02815260040180806020018281038252602b8152602001806112b9602b913960400191505060405180910390fd5b6001600160a01b038316600090815260036020526040902054610fd2908263ffffffff610b7b16565b6001600160a01b038416600090815260036020526040902055600154610ffe908263ffffffff610b7b16565b6001556040516001600160a01b0384169082156108fc029083906000818181858888f19350505050158015611037573d6000803e3d6000fd5b50604080516001600160a01b03851681526020810183905281517fdf20fd1e76bc69d672e4814fafb2c449bba3a5369d8359adf9e05e6fde87b056929181900390910190a1505050565b6000818361111057604051600160e51b62461bcd0281526004018080602001828103825283818151815260200191508051906020019080838360005b838110156110d55781810151838201526020016110bd565b50505050905090810190601f1680156111025780820380516001836020036101000a031916815260200191505b509250505060405180910390fd5b50600083858161111c57fe5b0495945050505050565b6000818484111561117b57604051600160e51b62461bcd0281526020600482018181528351602484015283519092839260449091019190850190808383600083156110d55781810151838201526020016110bd565b505050900390565b61118d8282610db9565b6111cb57604051600160e51b62461bcd0281526004018080602001828103825260218152602001806112e46021913960400191505060405180910390fd5b6001600160a01b0316600090815260209190915260409020805460ff19169055565b6111f78282610db9565b1561124c5760408051600160e51b62461bcd02815260206004820152601f60248201527f526f6c65733a206163636f756e7420616c72656164792068617320726f6c6500604482015290519081900360640190fd5b6001600160a01b0316600090815260209190915260409020805460ff1916600117905556fe5472616e73616374696f6e20697320616c726561647920636f6e6669726d6564215061796d656e7453706c69747465723a206163636f756e7420686173206e6f207368617265735061796d656e7453706c69747465723a206163636f756e74206973206e6f7420647565207061796d656e74526f6c65733a206163636f756e7420646f6573206e6f74206861766520726f6c65536166654d6174683a206d756c7469706c69636174696f6e206f766572666c6f77526f6c65733a206163636f756e7420697320746865207a65726f20616464726573735369676e6572526f6c653a2063616c6c657220646f6573206e6f74206861766520746865205369676e657220726f6c65a165627a7a7230582009c628d6a7c7337d5ab82fc9aae874be3b840c6273e4d031e839689d0474532e00295061796d656e7453706c69747465723a206163636f756e7420697320746865207a65726f2061646472657373526f6c65733a206163636f756e7420697320746865207a65726f20616464726573735061796d656e7453706c69747465723a2070617965657320616e6420736861726573206c656e677468206d69736d617463685061796d656e7453706c69747465723a206163636f756e7420616c72656164792068617320736861726573",
  "source": "pragma solidity ^0.5.0;\n\nimport \"./PaymentSplitterChanged.sol\";\nimport \"@openzeppelin/contracts/access/roles/SignerRole.sol\";\n\n/// @title Multisignature wallet - Allows multiple parties to agree on transactions before execution.\ncontract MultiSigSplittedWallet is  PaymentSplitterChanged, SignerRole {\n\n    struct Transaction {\n        address payable destination;\n        bool executed;\n    }\n\n    uint public transactionCount;\n    uint public required; //count of requirements\n    mapping (uint => Transaction) public transactions;\n    mapping (uint => mapping (address => bool)) public confirmations;\n\n    //    -  ,    !\n    constructor(address[] memory payees, uint256[] memory shares) PaymentSplitterChanged(payees, shares) public {\n        //    \n        for (uint256 i = 0; i < payees.length; i++) {\n            _addSigner(payees[i]);\n        }\n\n        required = _payees.length;\n    }\n\n    function release(address payable account) internal {\n        require(_shares[account] > 0, \"PaymentSplitter: account has no shares\");\n\n        uint256 totalReceived = address(this).balance.add(_totalReleased);\n        uint256 payment = totalReceived.mul(_shares[account]).div(_totalShares).sub(_released[account]);\n\n        require(payment != 0, \"PaymentSplitter: account is not due payment\");\n\n        _released[account] = _released[account].add(payment);\n        _totalReleased = _totalReleased.add(payment);\n\n        account.transfer(payment); //we will not transfer from this func\n        emit PaymentReleased(account, payment);\n    }\n\n    function submitTransaction(address payable destination)\n        public\n        returns (uint transactionId)\n    {\n        transactionId = addTransaction(destination);\n        confirmTransaction(transactionId);\n    }\n\n    function addTransaction(address payable destination)\n        internal\n        notNull(destination)\n        returns (uint transactionId)\n    {\n        transactionId = transactionCount;\n        transactions[transactionId] = Transaction({\n            destination: destination,\n            executed: false\n        });\n        transactionCount += 1;\n        emit Submission(transactionId);\n    }\n\n    /// @dev Allows an owner to confirm a transaction.\n    /// @param transactionId Transaction ID.\n    function confirmTransaction(uint transactionId)\n        public\n        onlySigner()\n        transactionExists(transactionId)\n        notConfirmed(transactionId, msg.sender)\n    {\n        confirmations[transactionId][msg.sender] = true;\n        emit Confirmation(msg.sender, transactionId);\n        executeTransaction(transactionId);\n    }\n\n    /// @dev Allows an owner to revoke a confirmation for a transaction.\n    /// @param transactionId Transaction ID.\n    function revokeConfirmation(uint transactionId)\n        public\n        onlySigner()\n        confirmed(transactionId, msg.sender)\n        notExecuted(transactionId)\n    {\n        confirmations[transactionId][msg.sender] = false;\n        emit Revocation(msg.sender, transactionId);\n    }\n\n    /// @dev Allows anyone to execute a confirmed transaction.\n    /// @param transactionId Transaction ID.\n    function executeTransaction(uint transactionId)\n        public\n        onlySigner()\n        confirmed(transactionId, msg.sender)\n        notExecuted(transactionId)\n    {\n        if (isConfirmed(transactionId)) {\n            Transaction storage txn = transactions[transactionId];\n            txn.executed = true;\n            release(txn.destination);\n        }\n    }\n\n    /// @dev Returns the confirmation status of a transaction.\n    /// @param transactionId Transaction ID.\n    /// @return Confirmation status.\n    function isConfirmed(uint transactionId)\n        public\n        view\n        returns (bool)\n    {\n        uint count = 0;\n        for (uint i = 0; i < _payees.length; i++) {\n            if (confirmations[transactionId][_payees[i]])\n                count += 1;\n            if (count == required)\n                return true;\n        }\n    }\n\n\n    function getBalance() public view returns(uint256) {\n        return address(this).balance;\n    }\n\n    // *** MODIFERS ***\n    modifier transactionExists(uint transactionId) {\n        require(transactions[transactionId].destination != address(0), \"Transaction not exists!\");\n        _;\n    }\n\n    modifier notConfirmed(uint transactionId, address owner) {\n        require(!confirmations[transactionId][owner], \"Transaction is already confirmed!\");\n        _;\n    }\n\n    modifier confirmed(uint transactionId, address owner) {\n        require(confirmations[transactionId][owner], \"Transaction is not confirmed!\");\n        _;\n    }\n\n    modifier notExecuted(uint transactionId) {\n        require(!transactions[transactionId].executed, \"Transaction is already executed!\");\n        _;\n    }\n\n    modifier notNull(address _address) {\n        require(_address != address(0), \"Address is null!\");\n        _;\n    }\n\n    /*\n     *  Events\n     */\n    event Confirmation(address indexed sender, uint indexed transactionId);\n    event Revocation(address indexed sender, uint indexed transactionId);\n    event Submission(uint indexed transactionId);\n    event Execution(uint indexed transactionId);\n    event ExecutionFailure(uint indexed transactionId);\n}",
  "sourcePath": "/home/intfloatbool//CrowdSale_MyContract/contracts/MultiSigSplittedWallet.sol",
  "compiler": {
    "name": "solc",
    "version": "0.5.8+commit.23d335f2.Emscripten.clang"
  },
  "schemaVersion": "3.0.17",
  "updatedAt": "2019-11-12T15:38:51.754Z",
  "devdoc": {
    "methods": {
      "confirmTransaction(uint256)": {
        "details": "Allows an owner to confirm a transaction.",
        "params": {
          "transactionId": "Transaction ID."
        }
      },
      "executeTransaction(uint256)": {
        "details": "Allows anyone to execute a confirmed transaction.",
        "params": {
          "transactionId": "Transaction ID."
        }
      },
      "isConfirmed(uint256)": {
        "details": "Returns the confirmation status of a transaction.",
        "params": {
          "transactionId": "Transaction ID."
        },
        "return": "Confirmation status."
      },
      "payee(uint256)": {
        "details": "Getter for the address of the payee number `index`."
      },
      "released(address)": {
        "details": "Getter for the amount of Ether already released to a payee."
      },
      "revokeConfirmation(uint256)": {
        "details": "Allows an owner to revoke a confirmation for a transaction.",
        "params": {
          "transactionId": "Transaction ID."
        }
      },
      "shares(address)": {
        "details": "Getter for the amount of shares held by an account."
      },
      "totalReleased()": {
        "details": "Getter for the total amount of Ether already released."
      },
      "totalShares()": {
        "details": "Getter for the total shares held by payees."
      }
    },
    "title": "Multisignature wallet - Allows multiple parties to agree on transactions before execution."
  },
  "userdoc": {
    "methods": {}
  }
}