{
  "contractName": "WalletSplitter",
  "abi": [
    {
      "constant": false,
      "inputs": [
        {
          "name": "account",
          "type": "address"
        }
      ],
      "name": "release",
      "outputs": [],
      "payable": false,
      "stateMutability": "nonpayable",
      "type": "function"
    },
    {
      "constant": true,
      "inputs": [],
      "name": "totalShares",
      "outputs": [
        {
          "name": "",
          "type": "uint256"
        }
      ],
      "payable": false,
      "stateMutability": "view",
      "type": "function"
    },
    {
      "constant": true,
      "inputs": [
        {
          "name": "account",
          "type": "address"
        }
      ],
      "name": "isSigner",
      "outputs": [
        {
          "name": "",
          "type": "bool"
        }
      ],
      "payable": false,
      "stateMutability": "view",
      "type": "function"
    },
    {
      "constant": true,
      "inputs": [
        {
          "name": "index",
          "type": "uint256"
        }
      ],
      "name": "payee",
      "outputs": [
        {
          "name": "",
          "type": "address"
        }
      ],
      "payable": false,
      "stateMutability": "view",
      "type": "function"
    },
    {
      "constant": true,
      "inputs": [
        {
          "name": "account",
          "type": "address"
        }
      ],
      "name": "released",
      "outputs": [
        {
          "name": "",
          "type": "uint256"
        }
      ],
      "payable": false,
      "stateMutability": "view",
      "type": "function"
    },
    {
      "constant": true,
      "inputs": [
        {
          "name": "account",
          "type": "address"
        }
      ],
      "name": "shares",
      "outputs": [
        {
          "name": "",
          "type": "uint256"
        }
      ],
      "payable": false,
      "stateMutability": "view",
      "type": "function"
    },
    {
      "constant": true,
      "inputs": [],
      "name": "totalReleased",
      "outputs": [
        {
          "name": "",
          "type": "uint256"
        }
      ],
      "payable": false,
      "stateMutability": "view",
      "type": "function"
    },
    {
      "constant": false,
      "inputs": [],
      "name": "renounceSigner",
      "outputs": [],
      "payable": false,
      "stateMutability": "nonpayable",
      "type": "function"
    },
    {
      "constant": false,
      "inputs": [
        {
          "name": "account",
          "type": "address"
        }
      ],
      "name": "addSigner",
      "outputs": [],
      "payable": false,
      "stateMutability": "nonpayable",
      "type": "function"
    },
    {
      "inputs": [
        {
          "name": "payees",
          "type": "address[]"
        },
        {
          "name": "shares",
          "type": "uint256[]"
        }
      ],
      "payable": false,
      "stateMutability": "nonpayable",
      "type": "constructor"
    },
    {
      "payable": true,
      "stateMutability": "payable",
      "type": "fallback"
    },
    {
      "anonymous": false,
      "inputs": [
        {
          "indexed": true,
          "name": "account",
          "type": "address"
        }
      ],
      "name": "SignerAdded",
      "type": "event"
    },
    {
      "anonymous": false,
      "inputs": [
        {
          "indexed": true,
          "name": "account",
          "type": "address"
        }
      ],
      "name": "SignerRemoved",
      "type": "event"
    },
    {
      "anonymous": false,
      "inputs": [
        {
          "indexed": false,
          "name": "account",
          "type": "address"
        },
        {
          "indexed": false,
          "name": "shares",
          "type": "uint256"
        }
      ],
      "name": "PayeeAdded",
      "type": "event"
    },
    {
      "anonymous": false,
      "inputs": [
        {
          "indexed": false,
          "name": "to",
          "type": "address"
        },
        {
          "indexed": false,
          "name": "amount",
          "type": "uint256"
        }
      ],
      "name": "PaymentReleased",
      "type": "event"
    },
    {
      "anonymous": false,
      "inputs": [
        {
          "indexed": false,
          "name": "from",
          "type": "address"
        },
        {
          "indexed": false,
          "name": "amount",
          "type": "uint256"
        }
      ],
      "name": "PaymentReceived",
      "type": "event"
    }
  ],
  "bytecode": "0x60806040523480156200001157600080fd5b50604051620011ab380380620011ab833981018060405260408110156200003757600080fd5b8101908080516401000000008111156200005057600080fd5b820160208101848111156200006457600080fd5b81518560208202830111640100000000821117156200008257600080fd5b505092919060200180516401000000008111156200009f57600080fd5b82016020810184811115620000b357600080fd5b8151856020820283011164010000000082111715620000d157600080fd5b50509291905050508181805182511462000137576040517f08c379a00000000000000000000000000000000000000000000000000000000081526004018080602001828103825260328152602001806200114e6032913960400191505060405180910390fd5b6000825111620001a857604080517f08c379a000000000000000000000000000000000000000000000000000000000815260206004820152601a60248201527f5061796d656e7453706c69747465723a206e6f20706179656573000000000000604482015290519081900360640190fd5b60005b8251811015620001f857620001ef838281518110620001c657fe5b6020026020010151838381518110620001db57fe5b60200260200101516200025f60201b60201c565b600101620001ab565b5050506200021b6200020f6200046060201b60201c565b6200046460201b60201c565b60005b825181101562000256576200024d8382815181106200023957fe5b60200260200101516200046460201b60201c565b6001016200021e565b50505062000659565b6001600160a01b038216620002c0576040517f08c379a000000000000000000000000000000000000000000000000000000000815260040180806020018281038252602c81526020018062001100602c913960400191505060405180910390fd5b600081116200033057604080517f08c379a000000000000000000000000000000000000000000000000000000000815260206004820152601d60248201527f5061796d656e7453706c69747465723a20736861726573206172652030000000604482015290519081900360640190fd5b6001600160a01b03821660009081526002602052604090205415620003a1576040517f08c379a000000000000000000000000000000000000000000000000000000000815260040180806020018281038252602b81526020018062001180602b913960400191505060405180910390fd5b60048054600181019091557f8a35acfbc15ff81a39ae7d344fd709f28e8600b4aa8c65c6b64bfe7fe36bd19b0180546001600160a01b0319166001600160a01b03841690811790915560009081526002602090815260408220839055905462000415918390620004b6811b6200055817901c565b600055604080516001600160a01b03841681526020810183905281517f40c340f65e17194d14ddddb073d3c9f888e3cb52b5aae0c6c7706b4fbc905fac929181900390910190a15050565b3390565b6200047f8160056200053260201b620009021790919060201c565b6040516001600160a01b038216907f47d1c22a25bb3a5d4e481b9b1e6944c2eade3181a0a20b495ed61d35b5323f2490600090a250565b6000828201838110156200052b57604080517f08c379a000000000000000000000000000000000000000000000000000000000815260206004820152601b60248201527f536166654d6174683a206164646974696f6e206f766572666c6f770000000000604482015290519081900360640190fd5b9392505050565b620005448282620005d660201b60201c565b15620005b157604080517f08c379a000000000000000000000000000000000000000000000000000000000815260206004820152601f60248201527f526f6c65733a206163636f756e7420616c72656164792068617320726f6c6500604482015290519081900360640190fd5b6001600160a01b0316600090815260209190915260409020805460ff19166001179055565b60006001600160a01b03821662000639576040517f08c379a00000000000000000000000000000000000000000000000000000000081526004018080602001828103825260228152602001806200112c6022913960400191505060405180910390fd5b506001600160a01b03166000908152602091909152604090205460ff1690565b610a9780620006696000396000f3fe6080604052600436106100865760003560e01c80639852595c116100595780639852595c146101ba578063ce7c2ac2146101ed578063e33b7de314610220578063e5c8b03d14610235578063eb12d61e1461024a57610086565b806319165587146100d15780633a98ef39146101065780637df73e271461012d5780638b83209b14610174575b7f6ef95f06320e7a25a04a175ca677b7052bdd97131872c2192525a629f51be7706100af61027d565b604080516001600160a01b0390921682523460208301528051918290030190a1005b3480156100dd57600080fd5b50610104600480360360208110156100f457600080fd5b50356001600160a01b0316610281565b005b34801561011257600080fd5b5061011b610467565b60408051918252519081900360200190f35b34801561013957600080fd5b506101606004803603602081101561015057600080fd5b50356001600160a01b031661046d565b604080519115158252519081900360200190f35b34801561018057600080fd5b5061019e6004803603602081101561019757600080fd5b5035610486565b604080516001600160a01b039092168252519081900360200190f35b3480156101c657600080fd5b5061011b600480360360208110156101dd57600080fd5b50356001600160a01b03166104b0565b3480156101f957600080fd5b5061011b6004803603602081101561021057600080fd5b50356001600160a01b03166104cb565b34801561022c57600080fd5b5061011b6104e6565b34801561024157600080fd5b506101046104ec565b34801561025657600080fd5b506101046004803603602081101561026d57600080fd5b50356001600160a01b03166104fe565b3390565b6001600160a01b0381166000908152600260205260409020546102d857604051600160e51b62461bcd0281526004018080602001828103825260268152602001806109876026913960400191505060405180910390fd5b6001546000906102f09030319063ffffffff61055816565b6001600160a01b0383166000908152600360209081526040808320548354600290935290832054939450919261034e92916103429161033690879063ffffffff6105bc16565b9063ffffffff61061816565b9063ffffffff61065a16565b90508061038f57604051600160e51b62461bcd02815260040180806020018281038252602b8152602001806109ad602b913960400191505060405180910390fd5b6001600160a01b0383166000908152600360205260409020546103b8908263ffffffff61055816565b6001600160a01b0384166000908152600360205260409020556001546103e4908263ffffffff61055816565b6001556040516001600160a01b0384169082156108fc029083906000818181858888f1935050505015801561041d573d6000803e3d6000fd5b50604080516001600160a01b03851681526020810183905281517fdf20fd1e76bc69d672e4814fafb2c449bba3a5369d8359adf9e05e6fde87b056929181900390910190a1505050565b60005490565b600061048060058363ffffffff61069c16565b92915050565b60006004828154811061049557fe5b6000918252602090912001546001600160a01b031692915050565b6001600160a01b031660009081526003602052604090205490565b6001600160a01b031660009081526002602052604090205490565b60015490565b6104fc6104f761027d565b610706565b565b61050e61050961027d565b61046d565b61054c57604051600160e51b62461bcd028152600401808060200182810382526030815260200180610a3c6030913960400191505060405180910390fd5b6105558161074e565b50565b6000828201838110156105b55760408051600160e51b62461bcd02815260206004820152601b60248201527f536166654d6174683a206164646974696f6e206f766572666c6f770000000000604482015290519081900360640190fd5b9392505050565b6000826105cb57506000610480565b828202828482816105d857fe5b04146105b557604051600160e51b62461bcd0281526004018080602001828103825260218152602001806109f96021913960400191505060405180910390fd5b60006105b583836040518060400160405280601a81526020017f536166654d6174683a206469766973696f6e206279207a65726f000000000000815250610796565b60006105b583836040518060400160405280601e81526020017f536166654d6174683a207375627472616374696f6e206f766572666c6f77000081525061083b565b60006001600160a01b0382166106e657604051600160e51b62461bcd028152600401808060200182810382526022815260200180610a1a6022913960400191505060405180910390fd5b506001600160a01b03166000908152602091909152604090205460ff1690565b61071760058263ffffffff61089816565b6040516001600160a01b038216907f3525e22824a8a7df2c9a6029941c824cf95b6447f1e13d5128fd3826d35afe8b90600090a250565b61075f60058263ffffffff61090216565b6040516001600160a01b038216907f47d1c22a25bb3a5d4e481b9b1e6944c2eade3181a0a20b495ed61d35b5323f2490600090a250565b6000818361082557604051600160e51b62461bcd0281526004018080602001828103825283818151815260200191508051906020019080838360005b838110156107ea5781810151838201526020016107d2565b50505050905090810190601f1680156108175780820380516001836020036101000a031916815260200191505b509250505060405180910390fd5b50600083858161083157fe5b0495945050505050565b6000818484111561089057604051600160e51b62461bcd0281526020600482018181528351602484015283519092839260449091019190850190808383600083156107ea5781810151838201526020016107d2565b505050900390565b6108a2828261069c565b6108e057604051600160e51b62461bcd0281526004018080602001828103825260218152602001806109d86021913960400191505060405180910390fd5b6001600160a01b0316600090815260209190915260409020805460ff19169055565b61090c828261069c565b156109615760408051600160e51b62461bcd02815260206004820152601f60248201527f526f6c65733a206163636f756e7420616c72656164792068617320726f6c6500604482015290519081900360640190fd5b6001600160a01b0316600090815260209190915260409020805460ff1916600117905556fe5061796d656e7453706c69747465723a206163636f756e7420686173206e6f207368617265735061796d656e7453706c69747465723a206163636f756e74206973206e6f7420647565207061796d656e74526f6c65733a206163636f756e7420646f6573206e6f74206861766520726f6c65536166654d6174683a206d756c7469706c69636174696f6e206f766572666c6f77526f6c65733a206163636f756e7420697320746865207a65726f20616464726573735369676e6572526f6c653a2063616c6c657220646f6573206e6f74206861766520746865205369676e657220726f6c65a165627a7a72305820598591711a5df2432765052ef42a3fb141dc087818cb15230ca4c2b1fa90a14900295061796d656e7453706c69747465723a206163636f756e7420697320746865207a65726f2061646472657373526f6c65733a206163636f756e7420697320746865207a65726f20616464726573735061796d656e7453706c69747465723a2070617965657320616e6420736861726573206c656e677468206d69736d617463685061796d656e7453706c69747465723a206163636f756e7420616c72656164792068617320736861726573",
  "source": "pragma solidity 0.5.8;\n\nimport \"@openzeppelin/contracts/payment/PaymentSplitter.sol\";\nimport \"@openzeppelin/contracts/access/roles/SignerRole.sol\";\n\ncontract WalletSplitter is PaymentSplitter, SignerRole {\n    constructor(address[] memory payees, uint256[] memory shares) PaymentSplitter(payees, shares) public {\n        //payees - кошельки между которыми делятся деньги\n        //payees - доли каждого кошелька (например у одного 10% у другого 90%)\n\n        //чтобы получить свою долю, один из участников кошелька должен вызывать функцию release(твой адрес)\n\n        //добавление сигнер роли всем участникам\n        for (uint256 i = 0; i < payees.length; i++) {\n            _addSigner(payees[i]);\n        }\n    }   \n}",
  "sourcePath": "/home/intfloatbool/Документы/CrowdSale_MyContract/contracts/WalletSplitter.sol",
  "compiler": {
    "name": "solc",
    "version": "0.5.8+commit.23d335f2.Emscripten.clang"
  },
  "schemaVersion": "3.0.17",
  "updatedAt": "2019-11-11T12:19:01.782Z",
  "devdoc": {
    "methods": {
      "payee(uint256)": {
        "details": "Getter for the address of the payee number `index`."
      },
      "release(address)": {
        "details": "Triggers a transfer to `account` of the amount of Ether they are owed, according to their percentage of the total shares and their previous withdrawals."
      },
      "released(address)": {
        "details": "Getter for the amount of Ether already released to a payee."
      },
      "shares(address)": {
        "details": "Getter for the amount of shares held by an account."
      },
      "totalReleased()": {
        "details": "Getter for the total amount of Ether already released."
      },
      "totalShares()": {
        "details": "Getter for the total shares held by payees."
      }
    }
  },
  "userdoc": {
    "methods": {}
  }
}