{
  "contractName": "WalletSplitter",
  "abi": [
    {
      "constant": true,
      "inputs": [
        {
          "name": "",
          "type": "uint256"
        }
      ],
      "name": "owners",
      "outputs": [
        {
          "name": "",
          "type": "address"
        }
      ],
      "payable": false,
      "stateMutability": "view",
      "type": "function"
    },
    {
      "constant": false,
      "inputs": [
        {
          "name": "owner",
          "type": "address"
        }
      ],
      "name": "removeOwner",
      "outputs": [],
      "payable": false,
      "stateMutability": "nonpayable",
      "type": "function"
    },
    {
      "constant": false,
      "inputs": [
        {
          "name": "account",
          "type": "address"
        }
      ],
      "name": "release",
      "outputs": [],
      "payable": false,
      "stateMutability": "nonpayable",
      "type": "function"
    },
    {
      "constant": false,
      "inputs": [
        {
          "name": "transactionId",
          "type": "uint256"
        }
      ],
      "name": "revokeConfirmation",
      "outputs": [],
      "payable": false,
      "stateMutability": "nonpayable",
      "type": "function"
    },
    {
      "constant": true,
      "inputs": [
        {
          "name": "",
          "type": "address"
        }
      ],
      "name": "isOwner",
      "outputs": [
        {
          "name": "",
          "type": "bool"
        }
      ],
      "payable": false,
      "stateMutability": "view",
      "type": "function"
    },
    {
      "constant": true,
      "inputs": [
        {
          "name": "",
          "type": "uint256"
        },
        {
          "name": "",
          "type": "address"
        }
      ],
      "name": "confirmations",
      "outputs": [
        {
          "name": "",
          "type": "bool"
        }
      ],
      "payable": false,
      "stateMutability": "view",
      "type": "function"
    },
    {
      "constant": true,
      "inputs": [],
      "name": "totalShares",
      "outputs": [
        {
          "name": "",
          "type": "uint256"
        }
      ],
      "payable": false,
      "stateMutability": "view",
      "type": "function"
    },
    {
      "constant": true,
      "inputs": [
        {
          "name": "pending",
          "type": "bool"
        },
        {
          "name": "executed",
          "type": "bool"
        }
      ],
      "name": "getTransactionCount",
      "outputs": [
        {
          "name": "count",
          "type": "uint256"
        }
      ],
      "payable": false,
      "stateMutability": "view",
      "type": "function"
    },
    {
      "constant": false,
      "inputs": [
        {
          "name": "owner",
          "type": "address"
        }
      ],
      "name": "addOwner",
      "outputs": [],
      "payable": false,
      "stateMutability": "nonpayable",
      "type": "function"
    },
    {
      "constant": true,
      "inputs": [
        {
          "name": "transactionId",
          "type": "uint256"
        }
      ],
      "name": "isConfirmed",
      "outputs": [
        {
          "name": "",
          "type": "bool"
        }
      ],
      "payable": false,
      "stateMutability": "view",
      "type": "function"
    },
    {
      "constant": true,
      "inputs": [
        {
          "name": "account",
          "type": "address"
        }
      ],
      "name": "isSigner",
      "outputs": [
        {
          "name": "",
          "type": "bool"
        }
      ],
      "payable": false,
      "stateMutability": "view",
      "type": "function"
    },
    {
      "constant": true,
      "inputs": [
        {
          "name": "transactionId",
          "type": "uint256"
        }
      ],
      "name": "getConfirmationCount",
      "outputs": [
        {
          "name": "count",
          "type": "uint256"
        }
      ],
      "payable": false,
      "stateMutability": "view",
      "type": "function"
    },
    {
      "constant": true,
      "inputs": [
        {
          "name": "index",
          "type": "uint256"
        }
      ],
      "name": "payee",
      "outputs": [
        {
          "name": "",
          "type": "address"
        }
      ],
      "payable": false,
      "stateMutability": "view",
      "type": "function"
    },
    {
      "constant": true,
      "inputs": [
        {
          "name": "account",
          "type": "address"
        }
      ],
      "name": "released",
      "outputs": [
        {
          "name": "",
          "type": "uint256"
        }
      ],
      "payable": false,
      "stateMutability": "view",
      "type": "function"
    },
    {
      "constant": true,
      "inputs": [
        {
          "name": "",
          "type": "uint256"
        }
      ],
      "name": "transactions",
      "outputs": [
        {
          "name": "destination",
          "type": "address"
        },
        {
          "name": "value",
          "type": "uint256"
        },
        {
          "name": "data",
          "type": "bytes"
        },
        {
          "name": "executed",
          "type": "bool"
        }
      ],
      "payable": false,
      "stateMutability": "view",
      "type": "function"
    },
    {
      "constant": true,
      "inputs": [],
      "name": "getOwners",
      "outputs": [
        {
          "name": "",
          "type": "address[]"
        }
      ],
      "payable": false,
      "stateMutability": "view",
      "type": "function"
    },
    {
      "constant": true,
      "inputs": [
        {
          "name": "from",
          "type": "uint256"
        },
        {
          "name": "to",
          "type": "uint256"
        },
        {
          "name": "pending",
          "type": "bool"
        },
        {
          "name": "executed",
          "type": "bool"
        }
      ],
      "name": "getTransactionIds",
      "outputs": [
        {
          "name": "_transactionIds",
          "type": "uint256[]"
        }
      ],
      "payable": false,
      "stateMutability": "view",
      "type": "function"
    },
    {
      "constant": true,
      "inputs": [
        {
          "name": "transactionId",
          "type": "uint256"
        }
      ],
      "name": "getConfirmations",
      "outputs": [
        {
          "name": "_confirmations",
          "type": "address[]"
        }
      ],
      "payable": false,
      "stateMutability": "view",
      "type": "function"
    },
    {
      "constant": true,
      "inputs": [],
      "name": "transactionCount",
      "outputs": [
        {
          "name": "",
          "type": "uint256"
        }
      ],
      "payable": false,
      "stateMutability": "view",
      "type": "function"
    },
    {
      "constant": false,
      "inputs": [
        {
          "name": "_required",
          "type": "uint256"
        }
      ],
      "name": "changeRequirement",
      "outputs": [],
      "payable": false,
      "stateMutability": "nonpayable",
      "type": "function"
    },
    {
      "constant": false,
      "inputs": [
        {
          "name": "transactionId",
          "type": "uint256"
        }
      ],
      "name": "confirmTransaction",
      "outputs": [],
      "payable": false,
      "stateMutability": "nonpayable",
      "type": "function"
    },
    {
      "constant": false,
      "inputs": [
        {
          "name": "destination",
          "type": "address"
        },
        {
          "name": "value",
          "type": "uint256"
        },
        {
          "name": "data",
          "type": "bytes"
        }
      ],
      "name": "submitTransaction",
      "outputs": [
        {
          "name": "transactionId",
          "type": "uint256"
        }
      ],
      "payable": false,
      "stateMutability": "nonpayable",
      "type": "function"
    },
    {
      "constant": true,
      "inputs": [
        {
          "name": "account",
          "type": "address"
        }
      ],
      "name": "shares",
      "outputs": [
        {
          "name": "",
          "type": "uint256"
        }
      ],
      "payable": false,
      "stateMutability": "view",
      "type": "function"
    },
    {
      "constant": true,
      "inputs": [],
      "name": "MAX_OWNER_COUNT",
      "outputs": [
        {
          "name": "",
          "type": "uint256"
        }
      ],
      "payable": false,
      "stateMutability": "view",
      "type": "function"
    },
    {
      "constant": true,
      "inputs": [],
      "name": "required",
      "outputs": [
        {
          "name": "",
          "type": "uint256"
        }
      ],
      "payable": false,
      "stateMutability": "view",
      "type": "function"
    },
    {
      "constant": false,
      "inputs": [
        {
          "name": "owner",
          "type": "address"
        },
        {
          "name": "newOwner",
          "type": "address"
        }
      ],
      "name": "replaceOwner",
      "outputs": [],
      "payable": false,
      "stateMutability": "nonpayable",
      "type": "function"
    },
    {
      "constant": true,
      "inputs": [],
      "name": "totalReleased",
      "outputs": [
        {
          "name": "",
          "type": "uint256"
        }
      ],
      "payable": false,
      "stateMutability": "view",
      "type": "function"
    },
    {
      "constant": false,
      "inputs": [],
      "name": "renounceSigner",
      "outputs": [],
      "payable": false,
      "stateMutability": "nonpayable",
      "type": "function"
    },
    {
      "constant": false,
      "inputs": [
        {
          "name": "account",
          "type": "address"
        }
      ],
      "name": "addSigner",
      "outputs": [],
      "payable": false,
      "stateMutability": "nonpayable",
      "type": "function"
    },
    {
      "constant": false,
      "inputs": [
        {
          "name": "transactionId",
          "type": "uint256"
        }
      ],
      "name": "executeTransaction",
      "outputs": [],
      "payable": false,
      "stateMutability": "nonpayable",
      "type": "function"
    },
    {
      "inputs": [
        {
          "name": "payees",
          "type": "address[]"
        },
        {
          "name": "shares",
          "type": "uint256[]"
        }
      ],
      "payable": false,
      "stateMutability": "nonpayable",
      "type": "constructor"
    },
    {
      "payable": true,
      "stateMutability": "payable",
      "type": "fallback"
    },
    {
      "anonymous": false,
      "inputs": [
        {
          "indexed": true,
          "name": "sender",
          "type": "address"
        },
        {
          "indexed": true,
          "name": "transactionId",
          "type": "uint256"
        }
      ],
      "name": "Confirmation",
      "type": "event"
    },
    {
      "anonymous": false,
      "inputs": [
        {
          "indexed": true,
          "name": "sender",
          "type": "address"
        },
        {
          "indexed": true,
          "name": "transactionId",
          "type": "uint256"
        }
      ],
      "name": "Revocation",
      "type": "event"
    },
    {
      "anonymous": false,
      "inputs": [
        {
          "indexed": true,
          "name": "transactionId",
          "type": "uint256"
        }
      ],
      "name": "Submission",
      "type": "event"
    },
    {
      "anonymous": false,
      "inputs": [
        {
          "indexed": true,
          "name": "transactionId",
          "type": "uint256"
        }
      ],
      "name": "Execution",
      "type": "event"
    },
    {
      "anonymous": false,
      "inputs": [
        {
          "indexed": true,
          "name": "transactionId",
          "type": "uint256"
        }
      ],
      "name": "ExecutionFailure",
      "type": "event"
    },
    {
      "anonymous": false,
      "inputs": [
        {
          "indexed": true,
          "name": "sender",
          "type": "address"
        },
        {
          "indexed": false,
          "name": "value",
          "type": "uint256"
        }
      ],
      "name": "Deposit",
      "type": "event"
    },
    {
      "anonymous": false,
      "inputs": [
        {
          "indexed": true,
          "name": "owner",
          "type": "address"
        }
      ],
      "name": "OwnerAddition",
      "type": "event"
    },
    {
      "anonymous": false,
      "inputs": [
        {
          "indexed": true,
          "name": "owner",
          "type": "address"
        }
      ],
      "name": "OwnerRemoval",
      "type": "event"
    },
    {
      "anonymous": false,
      "inputs": [
        {
          "indexed": false,
          "name": "required",
          "type": "uint256"
        }
      ],
      "name": "RequirementChange",
      "type": "event"
    },
    {
      "anonymous": false,
      "inputs": [
        {
          "indexed": true,
          "name": "account",
          "type": "address"
        }
      ],
      "name": "SignerAdded",
      "type": "event"
    },
    {
      "anonymous": false,
      "inputs": [
        {
          "indexed": true,
          "name": "account",
          "type": "address"
        }
      ],
      "name": "SignerRemoved",
      "type": "event"
    },
    {
      "anonymous": false,
      "inputs": [
        {
          "indexed": false,
          "name": "account",
          "type": "address"
        },
        {
          "indexed": false,
          "name": "shares",
          "type": "uint256"
        }
      ],
      "name": "PayeeAdded",
      "type": "event"
    },
    {
      "anonymous": false,
      "inputs": [
        {
          "indexed": false,
          "name": "to",
          "type": "address"
        },
        {
          "indexed": false,
          "name": "amount",
          "type": "uint256"
        }
      ],
      "name": "PaymentReleased",
      "type": "event"
    },
    {
      "anonymous": false,
      "inputs": [
        {
          "indexed": false,
          "name": "from",
          "type": "address"
        },
        {
          "indexed": false,
          "name": "amount",
          "type": "uint256"
        }
      ],
      "name": "PaymentReceived",
      "type": "event"
    }
  ],
  "bytecode": "0x60806040523480156200001157600080fd5b5060405162002f4738038062002f47833981018060405260408110156200003757600080fd5b8101908080516401000000008111156200005057600080fd5b820160208101848111156200006457600080fd5b81518560208202830111640100000000821117156200008257600080fd5b505092919060200180516401000000008111156200009f57600080fd5b82016020810184811115620000b357600080fd5b8151856020820283011164010000000082111715620000d157600080fd5b5050929190505050818251838380518251146200013a576040517f08c379a000000000000000000000000000000000000000000000000000000000815260040180806020018281038252603281526020018062002eea6032913960400191505060405180910390fd5b6000825111620001ab57604080517f08c379a000000000000000000000000000000000000000000000000000000000815260206004820152601a60248201527f5061796d656e7453706c69747465723a206e6f20706179656573000000000000604482015290519081900360640190fd5b60005b8251811015620001fb57620001f2838281518110620001c957fe5b6020026020010151838381518110620001de57fe5b60200260200101516200044c60201b60201c565b600101620001ae565b5050506200021e620002126200064d60201b60201c565b6200065260201b60201c565b81518160328211158015620002335750818111155b80156200023f57508015155b80156200024b57508115155b620002b757604080517f08c379a000000000000000000000000000000000000000000000000000000000815260206004820152601960248201527f4f776e657220636f756e74206973206e6f742076616c69642100000000000000604482015290519081900360640190fd5b60005b8451811015620003eb5760086000868381518110620002d557fe5b6020908102919091018101516001600160a01b031682528101919091526040016000205460ff1615801562000331575060006001600160a01b03168582815181106200031d57fe5b60200260200101516001600160a01b031614155b6200039d57604080517f08c379a000000000000000000000000000000000000000000000000000000000815260206004820181905260248201527f43616e6e6f742063726561746520636f6e7472616374206279206f776e657221604482015290519081900360640190fd5b600160086000878481518110620003b057fe5b6020908102919091018101516001600160a01b03168252810191909152604001600020805460ff1916911515919091179055600101620002ba565b5083516200040190600990602087019062000847565b505050600a555060005b825181101562000443576200043a8382815181106200042657fe5b60200260200101516200065260201b60201c565b6001016200040b565b505050620008d8565b6001600160a01b038216620004ad576040517f08c379a000000000000000000000000000000000000000000000000000000000815260040180806020018281038252602c81526020018062002e9c602c913960400191505060405180910390fd5b600081116200051d57604080517f08c379a000000000000000000000000000000000000000000000000000000000815260206004820152601d60248201527f5061796d656e7453706c69747465723a20736861726573206172652030000000604482015290519081900360640190fd5b6001600160a01b038216600090815260026020526040902054156200058e576040517f08c379a000000000000000000000000000000000000000000000000000000000815260040180806020018281038252602b81526020018062002f1c602b913960400191505060405180910390fd5b60048054600181019091557f8a35acfbc15ff81a39ae7d344fd709f28e8600b4aa8c65c6b64bfe7fe36bd19b0180546001600160a01b0319166001600160a01b03841690811790915560009081526002602090815260408220839055905462000602918390620006a4811b62001e2e17901c565b600055604080516001600160a01b03841681526020810183905281517f40c340f65e17194d14ddddb073d3c9f888e3cb52b5aae0c6c7706b4fbc905fac929181900390910190a15050565b335b90565b6200066d8160056200072060201b6200231b1790919060201c565b6040516001600160a01b038216907f47d1c22a25bb3a5d4e481b9b1e6944c2eade3181a0a20b495ed61d35b5323f2490600090a250565b6000828201838110156200071957604080517f08c379a000000000000000000000000000000000000000000000000000000000815260206004820152601b60248201527f536166654d6174683a206164646974696f6e206f766572666c6f770000000000604482015290519081900360640190fd5b9392505050565b620007328282620007c460201b60201c565b156200079f57604080517f08c379a000000000000000000000000000000000000000000000000000000000815260206004820152601f60248201527f526f6c65733a206163636f756e7420616c72656164792068617320726f6c6500604482015290519081900360640190fd5b6001600160a01b0316600090815260209190915260409020805460ff19166001179055565b60006001600160a01b03821662000827576040517f08c379a000000000000000000000000000000000000000000000000000000000815260040180806020018281038252602281526020018062002ec86022913960400191505060405180910390fd5b506001600160a01b03166000908152602091909152604090205460ff1690565b8280548282559060005260206000209081019282156200089f579160200282015b828111156200089f57825182546001600160a01b0319166001600160a01b0390911617825560209092019160019091019062000868565b50620008ad929150620008b1565b5090565b6200064f91905b80821115620008ad5780546001600160a01b0319168155600101620008b8565b6125b480620008e86000396000f3fe6080604052600436106101cd5760003560e01c8063a0e67e2b116100f7578063ce7c2ac211610095578063e33b7de311610064578063e33b7de314610839578063e5c8b03d1461084e578063eb12d61e14610863578063ee22610b14610896576101cd565b8063ce7c2ac2146107a1578063d74f8edd146107d4578063dc8452cd146107e9578063e20056e6146107fe576101cd565b8063b77bf600116100d1578063b77bf60014610670578063ba51a6df14610685578063c01a8c84146106af578063c6427474146106d9576101cd565b8063a0e67e2b146105a1578063a8abe69a14610606578063b5dc40c314610646576101cd565b8063547415251161016f5780638b51d13f1161013e5780638b51d13f1461044d5780638b83209b146104775780639852595c146104a15780639ace38c2146104d4576101cd565b806354741525146103895780637065cb48146103bd578063784547a7146103f05780637df73e271461041a576101cd565b806320ea8d86116101ab57806320ea8d86146102b85780632f54bf6e146102e25780633411c81c146103295780633a98ef3914610362576101cd565b8063025e7c271461020c578063173825d9146102525780631916558714610285575b341561020a5760408051348152905133917fe1fffcc4923d04b559f4d29a8bfc6cda04eb5b0d3c460751c2402c5c5cc9109c919081900360200190a25b005b34801561021857600080fd5b506102366004803603602081101561022f57600080fd5b50356108c0565b604080516001600160a01b039092168252519081900360200190f35b34801561025e57600080fd5b5061020a6004803603602081101561027557600080fd5b50356001600160a01b03166108e7565b34801561029157600080fd5b5061020a600480360360208110156102a857600080fd5b50356001600160a01b0316610aca565b3480156102c457600080fd5b5061020a600480360360208110156102db57600080fd5b5035610cb0565b3480156102ee57600080fd5b506103156004803603602081101561030557600080fd5b50356001600160a01b0316610e3e565b604080519115158252519081900360200190f35b34801561033557600080fd5b506103156004803603604081101561034c57600080fd5b50803590602001356001600160a01b0316610e53565b34801561036e57600080fd5b50610377610e73565b60408051918252519081900360200190f35b34801561039557600080fd5b50610377600480360360408110156103ac57600080fd5b508035151590602001351515610e7a565b3480156103c957600080fd5b5061020a600480360360208110156103e057600080fd5b50356001600160a01b0316610ee6565b3480156103fc57600080fd5b506103156004803603602081101561041357600080fd5b5035611106565b34801561042657600080fd5b506103156004803603602081101561043d57600080fd5b50356001600160a01b031661118d565b34801561045957600080fd5b506103776004803603602081101561047057600080fd5b50356111a6565b34801561048357600080fd5b506102366004803603602081101561049a57600080fd5b5035611215565b3480156104ad57600080fd5b50610377600480360360208110156104c457600080fd5b50356001600160a01b031661123f565b3480156104e057600080fd5b506104fe600480360360208110156104f757600080fd5b503561125a565b60405180856001600160a01b03166001600160a01b031681526020018481526020018060200183151515158152602001828103825284818151815260200191508051906020019080838360005b8381101561056357818101518382015260200161054b565b50505050905090810190601f1680156105905780820380516001836020036101000a031916815260200191505b509550505050505060405180910390f35b3480156105ad57600080fd5b506105b6611319565b60408051602080825283518183015283519192839290830191858101910280838360005b838110156105f25781810151838201526020016105da565b505050509050019250505060405180910390f35b34801561061257600080fd5b506105b66004803603608081101561062957600080fd5b50803590602081013590604081013515159060600135151561137b565b34801561065257600080fd5b506105b66004803603602081101561066957600080fd5b50356114a6565b34801561067c57600080fd5b5061037761161d565b34801561069157600080fd5b5061020a600480360360208110156106a857600080fd5b5035611623565b3480156106bb57600080fd5b5061020a600480360360208110156106d257600080fd5b5035611720565b3480156106e557600080fd5b50610377600480360360608110156106fc57600080fd5b6001600160a01b038235169160208101359181019060608101604082013564010000000081111561072c57600080fd5b82018360208201111561073e57600080fd5b8035906020019184600183028401116401000000008311171561076057600080fd5b91908080601f0160208091040260200160405190810160405280939291908181526020018383808284376000920191909152509295506118a7945050505050565b3480156107ad57600080fd5b50610377600480360360208110156107c457600080fd5b50356001600160a01b03166118c6565b3480156107e057600080fd5b506103776118e1565b3480156107f557600080fd5b506103776118e6565b34801561080a57600080fd5b5061020a6004803603604081101561082157600080fd5b506001600160a01b03813581169160200135166118ec565b34801561084557600080fd5b50610377611b2b565b34801561085a57600080fd5b5061020a611b31565b34801561086f57600080fd5b5061020a6004803603602081101561088657600080fd5b50356001600160a01b0316611b43565b3480156108a257600080fd5b5061020a600480360360208110156108b957600080fd5b5035611b9d565b600981815481106108cd57fe5b6000918252602090912001546001600160a01b0316905081565b33301461092857604051600160e51b62461bcd0281526004018080602001828103825260228152602001806125676022913960400191505060405180910390fd5b6001600160a01b038116600090815260086020526040902054819060ff166109915760408051600160e51b62461bcd0281526020600482015260116024820152600160781b704f776e6572206e6f74206578697374732102604482015290519081900360640190fd5b6001600160a01b0382166000908152600860205260408120805460ff191690555b60095460001901811015610a6557826001600160a01b0316600982815481106109d757fe5b6000918252602090912001546001600160a01b03161415610a5d57600980546000198101908110610a0457fe5b600091825260209091200154600980546001600160a01b039092169183908110610a2a57fe5b9060005260206000200160006101000a8154816001600160a01b0302191690836001600160a01b03160217905550610a65565b6001016109b2565b50600980546000190190610a79908261239f565b50600954600a541115610a9257600954610a9290611623565b6040516001600160a01b038316907f8001553a916ef2f495d26a907cc54d96ed840d7bda71e73194bf5a9df7a76b9090600090a25050565b6001600160a01b038116600090815260026020526040902054610b2157604051600160e51b62461bcd0281526004018080602001828103825260268152602001806124826026913960400191505060405180910390fd5b600154600090610b399030319063ffffffff611e2e16565b6001600160a01b03831660009081526003602090815260408083205483546002909352908320549394509192610b979291610b8b91610b7f90879063ffffffff611e8b16565b9063ffffffff611ee716565b9063ffffffff611f2916565b905080610bd857604051600160e51b62461bcd02815260040180806020018281038252602b8152602001806124a8602b913960400191505060405180910390fd5b6001600160a01b038316600090815260036020526040902054610c01908263ffffffff611e2e16565b6001600160a01b038416600090815260036020526040902055600154610c2d908263ffffffff611e2e16565b6001556040516001600160a01b0384169082156108fc029083906000818181858888f19350505050158015610c66573d6000803e3d6000fd5b50604080516001600160a01b03851681526020810183905281517fdf20fd1e76bc69d672e4814fafb2c449bba3a5369d8359adf9e05e6fde87b056929181900390910190a1505050565b3360008181526008602052604090205460ff16610d0e5760408051600160e51b62461bcd0281526020600482015260116024820152600160781b704f776e6572206e6f74206578697374732102604482015290519081900360640190fd5b60008281526007602090815260408083203380855292529091205483919060ff16610d835760408051600160e51b62461bcd02815260206004820152601d60248201527f5472616e73616374696f6e206973206e6f7420636f6e6669726d656421000000604482015290519081900360640190fd5b600084815260066020526040902060030154849060ff1615610def5760408051600160e51b62461bcd02815260206004820181905260248201527f5472616e73616374696f6e20697320616c726561647920657865637574656421604482015290519081900360640190fd5b6000858152600760209081526040808320338085529252808320805460ff191690555187927ff6a317157440607f36269043eb55f1287a5a19ba2216afeab88cd46cbcfb88e991a35050505050565b60086020526000908152604090205460ff1681565b600760209081526000928352604080842090915290825290205460ff1681565b6000545b90565b6000805b600b54811015610edf57838015610ea7575060008181526006602052604090206003015460ff16155b80610ecb5750828015610ecb575060008181526006602052604090206003015460ff165b15610ed7576001820191505b600101610e7e565b5092915050565b333014610f2757604051600160e51b62461bcd0281526004018080602001828103825260228152602001806125676022913960400191505060405180910390fd5b6001600160a01b038116600090815260086020526040902054819060ff1615610f9a5760408051600160e51b62461bcd02815260206004820152601560248201527f4f776e657220616c726561647920657869737473210000000000000000000000604482015290519081900360640190fd5b816001600160a01b038116610fef5760408051600160e51b62461bcd0281526020600482015260106024820152600160801b6f41646472657373206973206e756c6c2102604482015290519081900360640190fd5b600980549050600101600a546032821115801561100c5750818111155b801561101757508015155b801561102257508115155b6110765760408051600160e51b62461bcd02815260206004820152601960248201527f4f776e657220636f756e74206973206e6f742076616c69642100000000000000604482015290519081900360640190fd5b6001600160a01b038516600081815260086020526040808220805460ff1916600190811790915560098054918201815583527f6e1540171b6c0c960b71a7020d9f60077f6af931a8bbf590da0223dacf75c7af0180546001600160a01b03191684179055517ff39e6e1eb0edcf53c221607b54b00cd28f3196fed0a24994dc308b8f611b682d9190a25050505050565b600080805b600954811015611185576000848152600760205260408120600980549192918490811061113457fe5b60009182526020808320909101546001600160a01b0316835282019290925260400190205460ff1615611168576001820191505b600a5482141561117d57600192505050611188565b60010161110b565b50505b919050565b60006111a060058363ffffffff611f6b16565b92915050565b6000805b60095481101561120f57600083815260076020526040812060098054919291849081106111d357fe5b60009182526020808320909101546001600160a01b0316835282019290925260400190205460ff1615611207576001820191505b6001016111aa565b50919050565b60006004828154811061122457fe5b6000918252602090912001546001600160a01b031692915050565b6001600160a01b031660009081526003602052604090205490565b60066020908152600091825260409182902080546001808301546002808501805488516101009582161595909502600019011691909104601f81018790048702840187019097528683526001600160a01b039093169590949192918301828280156113065780601f106112db57610100808354040283529160200191611306565b820191906000526020600020905b8154815290600101906020018083116112e957829003601f168201915b5050506003909301549192505060ff1684565b6060600980548060200260200160405190810160405280929190818152602001828054801561137157602002820191906000526020600020905b81546001600160a01b03168152600190910190602001808311611353575b5050505050905090565b606080600b546040519080825280602002602001820160405280156113aa578160200160208202803883390190505b5090506000805b600b5481101561142b578580156113da575060008181526006602052604090206003015460ff16155b806113fe57508480156113fe575060008181526006602052604090206003015460ff165b15611423578083838151811061141057fe5b6020026020010181815250506001820191505b6001016113b1565b878703604051908082528060200260200182016040528015611457578160200160208202803883390190505b5093508790505b8681101561149b5782818151811061147257fe5b6020026020010151848983038151811061148857fe5b602090810291909101015260010161145e565b505050949350505050565b6060806009805490506040519080825280602002602001820160405280156114d8578160200160208202803883390190505b5090506000805b60095481101561159b576000858152600760205260408120600980549192918490811061150857fe5b60009182526020808320909101546001600160a01b0316835282019290925260400190205460ff1615611593576009818154811061154257fe5b9060005260206000200160009054906101000a90046001600160a01b031683838151811061156c57fe5b60200260200101906001600160a01b031690816001600160a01b0316815250506001820191505b6001016114df565b816040519080825280602002602001820160405280156115c5578160200160208202803883390190505b509350600090505b81811015611615578281815181106115e157fe5b60200260200101518482815181106115f557fe5b6001600160a01b03909216602092830291909101909101526001016115cd565b505050919050565b600b5481565b33301461166457604051600160e51b62461bcd0281526004018080602001828103825260228152602001806125676022913960400191505060405180910390fd5b60095481603282118015906116795750818111155b801561168457508015155b801561168f57508115155b6116e35760408051600160e51b62461bcd02815260206004820152601960248201527f4f776e657220636f756e74206973206e6f742076616c69642100000000000000604482015290519081900360640190fd5b600a8390556040805184815290517fa3f1ee9126a074d9326c682f561767f710e927faa811f7a99829d49dc421797a9181900360200190a1505050565b3360008181526008602052604090205460ff1661177e5760408051600160e51b62461bcd0281526020600482015260116024820152600160781b704f776e6572206e6f74206578697374732102604482015290519081900360640190fd5b60008281526006602052604090205482906001600160a01b03166117ec5760408051600160e51b62461bcd02815260206004820152601760248201527f5472616e73616374696f6e206e6f742065786973747321000000000000000000604482015290519081900360640190fd5b60008381526007602090815260408083203380855292529091205484919060ff161561184c57604051600160e51b62461bcd0281526004018080602001828103825260218152602001806124616021913960400191505060405180910390fd5b6000858152600760209081526040808320338085529252808320805460ff191660011790555187927f4a504a94899432a9846e1aa406dceb1bcfd538bb839071d49d1e5e23f5be30ef91a36118a085611b9d565b5050505050565b60006118b4848484611fd5565b90506118bf81611720565b9392505050565b6001600160a01b031660009081526002602052604090205490565b603281565b600a5481565b33301461192d57604051600160e51b62461bcd0281526004018080602001828103825260228152602001806125676022913960400191505060405180910390fd5b6001600160a01b038216600090815260086020526040902054829060ff166119965760408051600160e51b62461bcd0281526020600482015260116024820152600160781b704f776e6572206e6f74206578697374732102604482015290519081900360640190fd5b6001600160a01b038216600090815260086020526040902054829060ff1615611a095760408051600160e51b62461bcd02815260206004820152601560248201527f4f776e657220616c726561647920657869737473210000000000000000000000604482015290519081900360640190fd5b60005b600954811015611a9157846001600160a01b031660098281548110611a2d57fe5b6000918252602090912001546001600160a01b03161415611a89578360098281548110611a5657fe5b9060005260206000200160006101000a8154816001600160a01b0302191690836001600160a01b03160217905550611a91565b600101611a0c565b506001600160a01b03808516600081815260086020526040808220805460ff1990811690915593871682528082208054909416600117909355915190917f8001553a916ef2f495d26a907cc54d96ed840d7bda71e73194bf5a9df7a76b9091a26040516001600160a01b038416907ff39e6e1eb0edcf53c221607b54b00cd28f3196fed0a24994dc308b8f611b682d90600090a250505050565b60015490565b611b41611b3c6120f8565b6120fc565b565b611b53611b4e6120f8565b61118d565b611b9157604051600160e51b62461bcd0281526004018080602001828103825260308152602001806125376030913960400191505060405180910390fd5b611b9a81612144565b50565b3360008181526008602052604090205460ff16611bfb5760408051600160e51b62461bcd0281526020600482015260116024820152600160781b704f776e6572206e6f74206578697374732102604482015290519081900360640190fd5b60008281526007602090815260408083203380855292529091205483919060ff16611c705760408051600160e51b62461bcd02815260206004820152601d60248201527f5472616e73616374696f6e206973206e6f7420636f6e6669726d656421000000604482015290519081900360640190fd5b600084815260066020526040902060030154849060ff1615611cdc5760408051600160e51b62461bcd02815260206004820181905260248201527f5472616e73616374696f6e20697320616c726561647920657865637574656421604482015290519081900360640190fd5b611ce585611106565b156118a05760008581526006602090815260409182902060038101805460ff19166001908117909155815481830154600280850180548851601f600019978316156101000297909701909116929092049485018790048702820187019097528381529395611db9956001600160a01b03909316949193928390830182828015611daf5780601f10611d8457610100808354040283529160200191611daf565b820191906000526020600020905b815481529060010190602001808311611d9257829003601f168201915b505050505061218c565b15611dee5760405186907f33e13ecb54c3076d8e8bb8c2881800a4d972b792045ffae98fdf46df365fed7590600090a2611e26565b60405186907f526441bb6c1aba3c9a4a6ca1d6545da9c2333c8c48343ef398eb858d72b7923690600090a260038101805460ff191690555b505050505050565b6000828201838110156118bf5760408051600160e51b62461bcd02815260206004820152601b60248201527f536166654d6174683a206164646974696f6e206f766572666c6f770000000000604482015290519081900360640190fd5b600082611e9a575060006111a0565b82820282848281611ea757fe5b04146118bf57604051600160e51b62461bcd0281526004018080602001828103825260218152602001806124f46021913960400191505060405180910390fd5b60006118bf83836040518060400160405280601a81526020017f536166654d6174683a206469766973696f6e206279207a65726f0000000000008152506121af565b60006118bf83836040518060400160405280601e81526020017f536166654d6174683a207375627472616374696f6e206f766572666c6f770000815250612254565b60006001600160a01b038216611fb557604051600160e51b62461bcd0281526004018080602001828103825260228152602001806125156022913960400191505060405180910390fd5b506001600160a01b03166000908152602091909152604090205460ff1690565b6000836001600160a01b03811661202c5760408051600160e51b62461bcd0281526020600482015260106024820152600160801b6f41646472657373206973206e756c6c2102604482015290519081900360640190fd5b600b54604080516080810182526001600160a01b03888116825260208083018981528385018981526000606086018190528781526006845295909520845181546001600160a01b031916941693909317835551600183015592518051949650919390926120a09260028501929101906123c8565b50606091909101516003909101805460ff1916911515919091179055600b8054600101905560405182907fc0ba8fe4b176c1714197d43b9cc6bcf797a4a7461c5fe8d0ef6e184ae7601e5190600090a2509392505050565b3390565b61210d60058263ffffffff6122b116565b6040516001600160a01b038216907f3525e22824a8a7df2c9a6029941c824cf95b6447f1e13d5128fd3826d35afe8b90600090a250565b61215560058263ffffffff61231b16565b6040516001600160a01b038216907f47d1c22a25bb3a5d4e481b9b1e6944c2eade3181a0a20b495ed61d35b5323f2490600090a250565b6000806040516020840160008287838a8c6187965a03f198975050505050505050565b6000818361223e57604051600160e51b62461bcd0281526004018080602001828103825283818151815260200191508051906020019080838360005b838110156122035781810151838201526020016121eb565b50505050905090810190601f1680156122305780820380516001836020036101000a031916815260200191505b509250505060405180910390fd5b50600083858161224a57fe5b0495945050505050565b600081848411156122a957604051600160e51b62461bcd0281526020600482018181528351602484015283519092839260449091019190850190808383600083156122035781810151838201526020016121eb565b505050900390565b6122bb8282611f6b565b6122f957604051600160e51b62461bcd0281526004018080602001828103825260218152602001806124d36021913960400191505060405180910390fd5b6001600160a01b0316600090815260209190915260409020805460ff19169055565b6123258282611f6b565b1561237a5760408051600160e51b62461bcd02815260206004820152601f60248201527f526f6c65733a206163636f756e7420616c72656164792068617320726f6c6500604482015290519081900360640190fd5b6001600160a01b0316600090815260209190915260409020805460ff19166001179055565b8154818355818111156123c3576000838152602090206123c3918101908301612446565b505050565b828054600181600116156101000203166002900490600052602060002090601f016020900481019282601f1061240957805160ff1916838001178555612436565b82800160010185558215612436579182015b8281111561243657825182559160200191906001019061241b565b50612442929150612446565b5090565b610e7791905b80821115612442576000815560010161244c56fe5472616e73616374696f6e20697320616c726561647920636f6e6669726d6564215061796d656e7453706c69747465723a206163636f756e7420686173206e6f207368617265735061796d656e7453706c69747465723a206163636f756e74206973206e6f7420647565207061796d656e74526f6c65733a206163636f756e7420646f6573206e6f74206861766520726f6c65536166654d6174683a206d756c7469706c69636174696f6e206f766572666c6f77526f6c65733a206163636f756e7420697320746865207a65726f20616464726573735369676e6572526f6c653a2063616c6c657220646f6573206e6f74206861766520746865205369676e657220726f6c654f6e6c792077616c6c65742063616e206d616b65207472616e73616374696f6e7321a165627a7a72305820a78629c3d1ab065e03012fe946ef278c86577ac43ca373af62fe155a5f509c5800295061796d656e7453706c69747465723a206163636f756e7420697320746865207a65726f2061646472657373526f6c65733a206163636f756e7420697320746865207a65726f20616464726573735061796d656e7453706c69747465723a2070617965657320616e6420736861726573206c656e677468206d69736d617463685061796d656e7453706c69747465723a206163636f756e7420616c72656164792068617320736861726573",
  "source": "pragma solidity 0.5.8;\n\nimport \"@openzeppelin/contracts/payment/PaymentSplitter.sol\";\nimport \"@openzeppelin/contracts/access/roles/SignerRole.sol\";\nimport \"./MultiSigWallet.sol\";\n\ncontract WalletSplitter is PaymentSplitter, SignerRole, MultiSigWallet {\n    constructor(address[] memory payees, uint256[] memory shares) PaymentSplitter(payees, shares) MultiSigWallet(payees, payees.length) public {\n        //payees -     \n        //payees -    (   10%   90%)\n\n        //   ,        release( )\n\n        //    \n        for (uint256 i = 0; i < payees.length; i++) {\n            _addSigner(payees[i]);\n        }\n    }\n}",
  "sourcePath": "/home/intfloatbool//CrowdSale_MyContract/contracts/WalletSplitter.sol",
  "compiler": {
    "name": "solc",
    "version": "0.5.8+commit.23d335f2.Emscripten.clang"
  },
  "schemaVersion": "3.0.17",
  "updatedAt": "2019-11-11T12:25:12.634Z",
  "devdoc": {
    "methods": {
      "addOwner(address)": {
        "details": "Allows to add a new owner. Transaction has to be sent by wallet.",
        "params": {
          "owner": "Address of new owner."
        }
      },
      "changeRequirement(uint256)": {
        "details": "Allows to change the number of required confirmations. Transaction has to be sent by wallet.",
        "params": {
          "_required": "Number of required confirmations."
        }
      },
      "confirmTransaction(uint256)": {
        "details": "Allows an owner to confirm a transaction.",
        "params": {
          "transactionId": "Transaction ID."
        }
      },
      "executeTransaction(uint256)": {
        "details": "Allows anyone to execute a confirmed transaction.",
        "params": {
          "transactionId": "Transaction ID."
        }
      },
      "getConfirmationCount(uint256)": {
        "details": "Returns number of confirmations of a transaction.",
        "params": {
          "transactionId": "Transaction ID."
        },
        "return": "Number of confirmations."
      },
      "getConfirmations(uint256)": {
        "details": "Returns array with owner addresses, which confirmed transaction.",
        "params": {
          "transactionId": "Transaction ID."
        },
        "return": "Returns array of owner addresses."
      },
      "getOwners()": {
        "details": "Returns list of owners.",
        "return": "List of owner addresses."
      },
      "getTransactionCount(bool,bool)": {
        "details": "Returns total number of transactions after filers are applied.",
        "params": {
          "executed": "Include executed transactions.",
          "pending": "Include pending transactions."
        },
        "return": "Total number of transactions after filters are applied."
      },
      "getTransactionIds(uint256,uint256,bool,bool)": {
        "details": "Returns list of transaction IDs in defined range.",
        "params": {
          "executed": "Include executed transactions.",
          "from": "Index start position of transaction array.",
          "pending": "Include pending transactions.",
          "to": "Index end position of transaction array."
        },
        "return": "Returns array of transaction IDs."
      },
      "isConfirmed(uint256)": {
        "details": "Returns the confirmation status of a transaction.",
        "params": {
          "transactionId": "Transaction ID."
        },
        "return": "Confirmation status."
      },
      "payee(uint256)": {
        "details": "Getter for the address of the payee number `index`."
      },
      "release(address)": {
        "details": "Triggers a transfer to `account` of the amount of Ether they are owed, according to their percentage of the total shares and their previous withdrawals."
      },
      "released(address)": {
        "details": "Getter for the amount of Ether already released to a payee."
      },
      "removeOwner(address)": {
        "details": "Allows to remove an owner. Transaction has to be sent by wallet.",
        "params": {
          "owner": "Address of owner."
        }
      },
      "replaceOwner(address,address)": {
        "details": "Allows to replace an owner with a new owner. Transaction has to be sent by wallet.",
        "params": {
          "newOwner": "Address of new owner.",
          "owner": "Address of owner to be replaced."
        }
      },
      "revokeConfirmation(uint256)": {
        "details": "Allows an owner to revoke a confirmation for a transaction.",
        "params": {
          "transactionId": "Transaction ID."
        }
      },
      "shares(address)": {
        "details": "Getter for the amount of shares held by an account."
      },
      "submitTransaction(address,uint256,bytes)": {
        "details": "Allows an owner to submit and confirm a transaction.",
        "params": {
          "data": "Transaction data payload.",
          "destination": "Transaction target address.",
          "value": "Transaction ether value."
        },
        "return": "Returns transaction ID."
      },
      "totalReleased()": {
        "details": "Getter for the total amount of Ether already released."
      },
      "totalShares()": {
        "details": "Getter for the total shares held by payees."
      }
    }
  },
  "userdoc": {
    "methods": {}
  }
}