{
  "contractName": "WalletSplitter",
  "abi": [
    {
      "constant": false,
      "inputs": [
        {
          "name": "account",
          "type": "address"
        }
      ],
      "name": "release",
      "outputs": [],
      "payable": false,
      "stateMutability": "nonpayable",
      "type": "function"
    },
    {
      "constant": true,
      "inputs": [],
      "name": "totalShares",
      "outputs": [
        {
          "name": "",
          "type": "uint256"
        }
      ],
      "payable": false,
      "stateMutability": "view",
      "type": "function"
    },
    {
      "constant": true,
      "inputs": [
        {
          "name": "account",
          "type": "address"
        }
      ],
      "name": "getPaymentAmount",
      "outputs": [
        {
          "name": "",
          "type": "uint256"
        }
      ],
      "payable": false,
      "stateMutability": "view",
      "type": "function"
    },
    {
      "constant": true,
      "inputs": [
        {
          "name": "account",
          "type": "address"
        }
      ],
      "name": "isSigner",
      "outputs": [
        {
          "name": "",
          "type": "bool"
        }
      ],
      "payable": false,
      "stateMutability": "view",
      "type": "function"
    },
    {
      "constant": true,
      "inputs": [
        {
          "name": "index",
          "type": "uint256"
        }
      ],
      "name": "payee",
      "outputs": [
        {
          "name": "",
          "type": "address"
        }
      ],
      "payable": false,
      "stateMutability": "view",
      "type": "function"
    },
    {
      "constant": true,
      "inputs": [
        {
          "name": "account",
          "type": "address"
        }
      ],
      "name": "released",
      "outputs": [
        {
          "name": "",
          "type": "uint256"
        }
      ],
      "payable": false,
      "stateMutability": "view",
      "type": "function"
    },
    {
      "constant": true,
      "inputs": [
        {
          "name": "account",
          "type": "address"
        }
      ],
      "name": "shares",
      "outputs": [
        {
          "name": "",
          "type": "uint256"
        }
      ],
      "payable": false,
      "stateMutability": "view",
      "type": "function"
    },
    {
      "constant": true,
      "inputs": [],
      "name": "totalReleased",
      "outputs": [
        {
          "name": "",
          "type": "uint256"
        }
      ],
      "payable": false,
      "stateMutability": "view",
      "type": "function"
    },
    {
      "constant": false,
      "inputs": [],
      "name": "renounceSigner",
      "outputs": [],
      "payable": false,
      "stateMutability": "nonpayable",
      "type": "function"
    },
    {
      "constant": false,
      "inputs": [
        {
          "name": "account",
          "type": "address"
        }
      ],
      "name": "addSigner",
      "outputs": [],
      "payable": false,
      "stateMutability": "nonpayable",
      "type": "function"
    },
    {
      "inputs": [
        {
          "name": "payees",
          "type": "address[]"
        },
        {
          "name": "shares",
          "type": "uint256[]"
        }
      ],
      "payable": false,
      "stateMutability": "nonpayable",
      "type": "constructor"
    },
    {
      "payable": true,
      "stateMutability": "payable",
      "type": "fallback"
    },
    {
      "anonymous": false,
      "inputs": [
        {
          "indexed": true,
          "name": "account",
          "type": "address"
        }
      ],
      "name": "SignerAdded",
      "type": "event"
    },
    {
      "anonymous": false,
      "inputs": [
        {
          "indexed": true,
          "name": "account",
          "type": "address"
        }
      ],
      "name": "SignerRemoved",
      "type": "event"
    },
    {
      "anonymous": false,
      "inputs": [
        {
          "indexed": false,
          "name": "account",
          "type": "address"
        },
        {
          "indexed": false,
          "name": "shares",
          "type": "uint256"
        }
      ],
      "name": "PayeeAdded",
      "type": "event"
    },
    {
      "anonymous": false,
      "inputs": [
        {
          "indexed": false,
          "name": "to",
          "type": "address"
        },
        {
          "indexed": false,
          "name": "amount",
          "type": "uint256"
        }
      ],
      "name": "PaymentReleased",
      "type": "event"
    },
    {
      "anonymous": false,
      "inputs": [
        {
          "indexed": false,
          "name": "from",
          "type": "address"
        },
        {
          "indexed": false,
          "name": "amount",
          "type": "uint256"
        }
      ],
      "name": "PaymentReceived",
      "type": "event"
    }
  ],
  "bytecode": "0x60806040523480156200001157600080fd5b506040516200125138038062001251833981018060405260408110156200003757600080fd5b8101908080516401000000008111156200005057600080fd5b820160208101848111156200006457600080fd5b81518560208202830111640100000000821117156200008257600080fd5b505092919060200180516401000000008111156200009f57600080fd5b82016020810184811115620000b357600080fd5b8151856020820283011164010000000082111715620000d157600080fd5b50509291905050508181805182511462000137576040517f08c379a0000000000000000000000000000000000000000000000000000000008152600401808060200182810382526032815260200180620011f46032913960400191505060405180910390fd5b6000825111620001a857604080517f08c379a000000000000000000000000000000000000000000000000000000000815260206004820152601a60248201527f5061796d656e7453706c69747465723a206e6f20706179656573000000000000604482015290519081900360640190fd5b60005b8251811015620001f857620001ef838281518110620001c657fe5b6020026020010151838381518110620001db57fe5b60200260200101516200025f60201b60201c565b600101620001ab565b5050506200021b6200020f6200046060201b60201c565b6200046460201b60201c565b60005b825181101562000256576200024d8382815181106200023957fe5b60200260200101516200046460201b60201c565b6001016200021e565b50505062000659565b6001600160a01b038216620002c0576040517f08c379a000000000000000000000000000000000000000000000000000000000815260040180806020018281038252602c815260200180620011a6602c913960400191505060405180910390fd5b600081116200033057604080517f08c379a000000000000000000000000000000000000000000000000000000000815260206004820152601d60248201527f5061796d656e7453706c69747465723a20736861726573206172652030000000604482015290519081900360640190fd5b6001600160a01b03821660009081526002602052604090205415620003a1576040517f08c379a000000000000000000000000000000000000000000000000000000000815260040180806020018281038252602b81526020018062001226602b913960400191505060405180910390fd5b60048054600181019091557f8a35acfbc15ff81a39ae7d344fd709f28e8600b4aa8c65c6b64bfe7fe36bd19b0180546001600160a01b0319166001600160a01b03841690811790915560009081526002602090815260408220839055905462000415918390620004b6811b620005fe17901c565b600055604080516001600160a01b03841681526020810183905281517f40c340f65e17194d14ddddb073d3c9f888e3cb52b5aae0c6c7706b4fbc905fac929181900390910190a15050565b3390565b6200047f8160056200053260201b620009a81790919060201c565b6040516001600160a01b038216907f47d1c22a25bb3a5d4e481b9b1e6944c2eade3181a0a20b495ed61d35b5323f2490600090a250565b6000828201838110156200052b57604080517f08c379a000000000000000000000000000000000000000000000000000000000815260206004820152601b60248201527f536166654d6174683a206164646974696f6e206f766572666c6f770000000000604482015290519081900360640190fd5b9392505050565b620005448282620005d660201b60201c565b15620005b157604080517f08c379a000000000000000000000000000000000000000000000000000000000815260206004820152601f60248201527f526f6c65733a206163636f756e7420616c72656164792068617320726f6c6500604482015290519081900360640190fd5b6001600160a01b0316600090815260209190915260409020805460ff19166001179055565b60006001600160a01b03821662000639576040517f08c379a0000000000000000000000000000000000000000000000000000000008152600401808060200182810382526022815260200180620011d26022913960400191505060405180910390fd5b506001600160a01b03166000908152602091909152604090205460ff1690565b610b3d80620006696000396000f3fe6080604052600436106100915760003560e01c80639852595c116100595780639852595c146101f8578063ce7c2ac21461022b578063e33b7de31461025e578063e5c8b03d14610273578063eb12d61e1461028857610091565b806319165587146100dc5780633a98ef39146101115780634b04707a146101385780637df73e271461016b5780638b83209b146101b2575b7f6ef95f06320e7a25a04a175ca677b7052bdd97131872c2192525a629f51be7706100ba6102bb565b604080516001600160a01b0390921682523460208301528051918290030190a1005b3480156100e857600080fd5b5061010f600480360360208110156100ff57600080fd5b50356001600160a01b03166102bf565b005b34801561011d57600080fd5b506101266104a5565b60408051918252519081900360200190f35b34801561014457600080fd5b506101266004803603602081101561015b57600080fd5b50356001600160a01b03166104ab565b34801561017757600080fd5b5061019e6004803603602081101561018e57600080fd5b50356001600160a01b0316610513565b604080519115158252519081900360200190f35b3480156101be57600080fd5b506101dc600480360360208110156101d557600080fd5b503561052c565b604080516001600160a01b039092168252519081900360200190f35b34801561020457600080fd5b506101266004803603602081101561021b57600080fd5b50356001600160a01b0316610556565b34801561023757600080fd5b506101266004803603602081101561024e57600080fd5b50356001600160a01b0316610571565b34801561026a57600080fd5b5061012661058c565b34801561027f57600080fd5b5061010f610592565b34801561029457600080fd5b5061010f600480360360208110156102ab57600080fd5b50356001600160a01b03166105a4565b3390565b6001600160a01b03811660009081526002602052604090205461031657604051600160e51b62461bcd028152600401808060200182810382526026815260200180610a2d6026913960400191505060405180910390fd5b60015460009061032e9030319063ffffffff6105fe16565b6001600160a01b0383166000908152600360209081526040808320548354600290935290832054939450919261038c92916103809161037490879063ffffffff61066216565b9063ffffffff6106be16565b9063ffffffff61070016565b9050806103cd57604051600160e51b62461bcd02815260040180806020018281038252602b815260200180610a53602b913960400191505060405180910390fd5b6001600160a01b0383166000908152600360205260409020546103f6908263ffffffff6105fe16565b6001600160a01b038416600090815260036020526040902055600154610422908263ffffffff6105fe16565b6001556040516001600160a01b0384169082156108fc029083906000818181858888f1935050505015801561045b573d6000803e3d6000fd5b50604080516001600160a01b03851681526020810183905281517fdf20fd1e76bc69d672e4814fafb2c449bba3a5369d8359adf9e05e6fde87b056929181900390910190a1505050565b60005490565b60015460009081906104c59030319063ffffffff6105fe16565b6001600160a01b0384166000908152600360209081526040808320548354600290935290832054939450919261050b92916103809161037490879063ffffffff61066216565b949350505050565b600061052660058363ffffffff61074216565b92915050565b60006004828154811061053b57fe5b6000918252602090912001546001600160a01b031692915050565b6001600160a01b031660009081526003602052604090205490565b6001600160a01b031660009081526002602052604090205490565b60015490565b6105a261059d6102bb565b6107ac565b565b6105b46105af6102bb565b610513565b6105f257604051600160e51b62461bcd028152600401808060200182810382526030815260200180610ae26030913960400191505060405180910390fd5b6105fb816107f4565b50565b60008282018381101561065b5760408051600160e51b62461bcd02815260206004820152601b60248201527f536166654d6174683a206164646974696f6e206f766572666c6f770000000000604482015290519081900360640190fd5b9392505050565b60008261067157506000610526565b8282028284828161067e57fe5b041461065b57604051600160e51b62461bcd028152600401808060200182810382526021815260200180610a9f6021913960400191505060405180910390fd5b600061065b83836040518060400160405280601a81526020017f536166654d6174683a206469766973696f6e206279207a65726f00000000000081525061083c565b600061065b83836040518060400160405280601e81526020017f536166654d6174683a207375627472616374696f6e206f766572666c6f7700008152506108e1565b60006001600160a01b03821661078c57604051600160e51b62461bcd028152600401808060200182810382526022815260200180610ac06022913960400191505060405180910390fd5b506001600160a01b03166000908152602091909152604090205460ff1690565b6107bd60058263ffffffff61093e16565b6040516001600160a01b038216907f3525e22824a8a7df2c9a6029941c824cf95b6447f1e13d5128fd3826d35afe8b90600090a250565b61080560058263ffffffff6109a816565b6040516001600160a01b038216907f47d1c22a25bb3a5d4e481b9b1e6944c2eade3181a0a20b495ed61d35b5323f2490600090a250565b600081836108cb57604051600160e51b62461bcd0281526004018080602001828103825283818151815260200191508051906020019080838360005b83811015610890578181015183820152602001610878565b50505050905090810190601f1680156108bd5780820380516001836020036101000a031916815260200191505b509250505060405180910390fd5b5060008385816108d757fe5b0495945050505050565b6000818484111561093657604051600160e51b62461bcd028152602060048201818152835160248401528351909283926044909101919085019080838360008315610890578181015183820152602001610878565b505050900390565b6109488282610742565b61098657604051600160e51b62461bcd028152600401808060200182810382526021815260200180610a7e6021913960400191505060405180910390fd5b6001600160a01b0316600090815260209190915260409020805460ff19169055565b6109b28282610742565b15610a075760408051600160e51b62461bcd02815260206004820152601f60248201527f526f6c65733a206163636f756e7420616c72656164792068617320726f6c6500604482015290519081900360640190fd5b6001600160a01b0316600090815260209190915260409020805460ff1916600117905556fe5061796d656e7453706c69747465723a206163636f756e7420686173206e6f207368617265735061796d656e7453706c69747465723a206163636f756e74206973206e6f7420647565207061796d656e74526f6c65733a206163636f756e7420646f6573206e6f74206861766520726f6c65536166654d6174683a206d756c7469706c69636174696f6e206f766572666c6f77526f6c65733a206163636f756e7420697320746865207a65726f20616464726573735369676e6572526f6c653a2063616c6c657220646f6573206e6f74206861766520746865205369676e657220726f6c65a165627a7a723058207587120260fde51d3e761304a744944fca7c8a989b08ff6c3950acf46292207d00295061796d656e7453706c69747465723a206163636f756e7420697320746865207a65726f2061646472657373526f6c65733a206163636f756e7420697320746865207a65726f20616464726573735061796d656e7453706c69747465723a2070617965657320616e6420736861726573206c656e677468206d69736d617463685061796d656e7453706c69747465723a206163636f756e7420616c72656164792068617320736861726573",
  "source": "pragma solidity 0.5.8;\n\nimport \"@openzeppelin/contracts/payment/PaymentSplitter.sol\";\nimport \"@openzeppelin/contracts/access/roles/SignerRole.sol\";\n\ncontract WalletSplitter is PaymentSplitter, SignerRole {\n    struct Transaction {\n        address destination;\n        uint value;\n        bool executed;\n    }\n    constructor(address[] memory payees, uint256[] memory shares) PaymentSplitter(payees, shares) public {\n        //payees - кошельки между которыми делятся деньги\n        //payees - доли каждого кошелька (например у одного 10% у другого 90%)\n\n        //чтобы получить свою долю, один из участников кошелька должен вызывать функцию release(твой адрес)\n\n        //добавление сигнер роли всем участникам\n        for (uint256 i = 0; i < payees.length; i++) {\n            _addSigner(payees[i]);\n        }\n    }\n}",
  "sourcePath": "/home/intfloatbool/Документы/CrowdSale_MyContract/contracts/WalletSplitter.sol",
  "compiler": {
    "name": "solc",
    "version": "0.5.8+commit.23d335f2.Emscripten.clang"
  },
  "schemaVersion": "3.0.17",
  "updatedAt": "2019-11-12T15:26:30.705Z",
  "devdoc": {
    "methods": {
      "payee(uint256)": {
        "details": "Getter for the address of the payee number `index`."
      },
      "release(address)": {
        "details": "Triggers a transfer to `account` of the amount of Ether they are owed, according to their percentage of the total shares and their previous withdrawals."
      },
      "released(address)": {
        "details": "Getter for the amount of Ether already released to a payee."
      },
      "shares(address)": {
        "details": "Getter for the amount of shares held by an account."
      },
      "totalReleased()": {
        "details": "Getter for the total amount of Ether already released."
      },
      "totalShares()": {
        "details": "Getter for the total shares held by payees."
      }
    }
  },
  "userdoc": {
    "methods": {}
  }
}