{
  "contractName": "WalletSplitter",
  "abi": [
    {
      "constant": false,
      "inputs": [
        {
          "name": "account",
          "type": "address"
        }
      ],
      "name": "release",
      "outputs": [],
      "payable": false,
      "stateMutability": "nonpayable",
      "type": "function"
    },
    {
      "constant": true,
      "inputs": [],
      "name": "totalShares",
      "outputs": [
        {
          "name": "",
          "type": "uint256"
        }
      ],
      "payable": false,
      "stateMutability": "view",
      "type": "function"
    },
    {
      "constant": true,
      "inputs": [
        {
          "name": "index",
          "type": "uint256"
        }
      ],
      "name": "payee",
      "outputs": [
        {
          "name": "",
          "type": "address"
        }
      ],
      "payable": false,
      "stateMutability": "view",
      "type": "function"
    },
    {
      "constant": true,
      "inputs": [
        {
          "name": "account",
          "type": "address"
        }
      ],
      "name": "released",
      "outputs": [
        {
          "name": "",
          "type": "uint256"
        }
      ],
      "payable": false,
      "stateMutability": "view",
      "type": "function"
    },
    {
      "constant": true,
      "inputs": [
        {
          "name": "account",
          "type": "address"
        }
      ],
      "name": "shares",
      "outputs": [
        {
          "name": "",
          "type": "uint256"
        }
      ],
      "payable": false,
      "stateMutability": "view",
      "type": "function"
    },
    {
      "constant": true,
      "inputs": [],
      "name": "totalReleased",
      "outputs": [
        {
          "name": "",
          "type": "uint256"
        }
      ],
      "payable": false,
      "stateMutability": "view",
      "type": "function"
    },
    {
      "inputs": [
        {
          "name": "payees",
          "type": "address[]"
        },
        {
          "name": "shares",
          "type": "uint256[]"
        }
      ],
      "payable": false,
      "stateMutability": "nonpayable",
      "type": "constructor"
    },
    {
      "payable": true,
      "stateMutability": "payable",
      "type": "fallback"
    },
    {
      "anonymous": false,
      "inputs": [
        {
          "indexed": false,
          "name": "account",
          "type": "address"
        },
        {
          "indexed": false,
          "name": "shares",
          "type": "uint256"
        }
      ],
      "name": "PayeeAdded",
      "type": "event"
    },
    {
      "anonymous": false,
      "inputs": [
        {
          "indexed": false,
          "name": "to",
          "type": "address"
        },
        {
          "indexed": false,
          "name": "amount",
          "type": "uint256"
        }
      ],
      "name": "PaymentReleased",
      "type": "event"
    },
    {
      "anonymous": false,
      "inputs": [
        {
          "indexed": false,
          "name": "from",
          "type": "address"
        },
        {
          "indexed": false,
          "name": "amount",
          "type": "uint256"
        }
      ],
      "name": "PaymentReceived",
      "type": "event"
    }
  ],
  "bytecode": "0x608060405234801561001057600080fd5b50604051610bf4380380610bf48339810180604052604081101561003357600080fd5b81019080805164010000000081111561004b57600080fd5b8201602081018481111561005e57600080fd5b815185602082028301116401000000008211171561007b57600080fd5b5050929190602001805164010000000081111561009757600080fd5b820160208101848111156100aa57600080fd5b81518560208202830111640100000000821117156100c757600080fd5b50509291905050508181805182511461012b576040517f08c379a0000000000000000000000000000000000000000000000000000000008152600401808060200182810382526032815260200180610b976032913960400191505060405180910390fd5b600082511161019b57604080517f08c379a000000000000000000000000000000000000000000000000000000000815260206004820152601a60248201527f5061796d656e7453706c69747465723a206e6f20706179656573000000000000604482015290519081900360640190fd5b60005b82518110156101e5576101dd8382815181106101b657fe5b60200260200101518383815181106101ca57fe5b60200260200101516101ef60201b60201c565b60010161019e565b5050505050610463565b6001600160a01b03821661024e576040517f08c379a000000000000000000000000000000000000000000000000000000000815260040180806020018281038252602c815260200180610b6b602c913960400191505060405180910390fd5b600081116102bd57604080517f08c379a000000000000000000000000000000000000000000000000000000000815260206004820152601d60248201527f5061796d656e7453706c69747465723a20736861726573206172652030000000604482015290519081900360640190fd5b6001600160a01b0382166000908152600260205260409020541561032c576040517f08c379a000000000000000000000000000000000000000000000000000000000815260040180806020018281038252602b815260200180610bc9602b913960400191505060405180910390fd5b60048054600181019091557f8a35acfbc15ff81a39ae7d344fd709f28e8600b4aa8c65c6b64bfe7fe36bd19b0180546001600160a01b0319166001600160a01b03841690811790915560009081526002602090815260408220839055905461039d9183906103e8811b61041317901c565b600055604080516001600160a01b03841681526020810183905281517f40c340f65e17194d14ddddb073d3c9f888e3cb52b5aae0c6c7706b4fbc905fac929181900390910190a15050565b60008282018381101561045c57604080517f08c379a000000000000000000000000000000000000000000000000000000000815260206004820152601b60248201527f536166654d6174683a206164646974696f6e206f766572666c6f770000000000604482015290519081900360640190fd5b9392505050565b6106f9806104726000396000f3fe6080604052600436106100555760003560e01c806319165587146100a05780633a98ef39146100d55780638b83209b146100fc5780639852595c14610142578063ce7c2ac214610175578063e33b7de3146101a8575b7f6ef95f06320e7a25a04a175ca677b7052bdd97131872c2192525a629f51be77061007e6101bd565b604080516001600160a01b0390921682523460208301528051918290030190a1005b3480156100ac57600080fd5b506100d3600480360360208110156100c357600080fd5b50356001600160a01b03166101c1565b005b3480156100e157600080fd5b506100ea6103a7565b60408051918252519081900360200190f35b34801561010857600080fd5b506101266004803603602081101561011f57600080fd5b50356103ad565b604080516001600160a01b039092168252519081900360200190f35b34801561014e57600080fd5b506100ea6004803603602081101561016557600080fd5b50356001600160a01b03166103d7565b34801561018157600080fd5b506100ea6004803603602081101561019857600080fd5b50356001600160a01b03166103f2565b3480156101b457600080fd5b506100ea61040d565b3390565b6001600160a01b03811660009081526002602052604090205461021857604051600160e51b62461bcd02815260040180806020018281038252602681526020018061065c6026913960400191505060405180910390fd5b6001546000906102309030319063ffffffff61041316565b6001600160a01b0383166000908152600360209081526040808320548354600290935290832054939450919261028e92916102829161027690879063ffffffff61047916565b9063ffffffff6104d516565b9063ffffffff61051716565b9050806102cf57604051600160e51b62461bcd02815260040180806020018281038252602b815260200180610682602b913960400191505060405180910390fd5b6001600160a01b0383166000908152600360205260409020546102f8908263ffffffff61041316565b6001600160a01b038416600090815260036020526040902055600154610324908263ffffffff61041316565b6001556040516001600160a01b0384169082156108fc029083906000818181858888f1935050505015801561035d573d6000803e3d6000fd5b50604080516001600160a01b03851681526020810183905281517fdf20fd1e76bc69d672e4814fafb2c449bba3a5369d8359adf9e05e6fde87b056929181900390910190a1505050565b60005490565b6000600482815481106103bc57fe5b6000918252602090912001546001600160a01b031692915050565b6001600160a01b031660009081526003602052604090205490565b6001600160a01b031660009081526002602052604090205490565b60015490565b6000828201838110156104705760408051600160e51b62461bcd02815260206004820152601b60248201527f536166654d6174683a206164646974696f6e206f766572666c6f770000000000604482015290519081900360640190fd5b90505b92915050565b60008261048857506000610473565b8282028284828161049557fe5b041461047057604051600160e51b62461bcd0281526004018080602001828103825260218152602001806106ad6021913960400191505060405180910390fd5b600061047083836040518060400160405280601a81526020017f536166654d6174683a206469766973696f6e206279207a65726f000000000000815250610559565b600061047083836040518060400160405280601e81526020017f536166654d6174683a207375627472616374696f6e206f766572666c6f7700008152506105fe565b600081836105e857604051600160e51b62461bcd0281526004018080602001828103825283818151815260200191508051906020019080838360005b838110156105ad578181015183820152602001610595565b50505050905090810190601f1680156105da5780820380516001836020036101000a031916815260200191505b509250505060405180910390fd5b5060008385816105f457fe5b0495945050505050565b6000818484111561065357604051600160e51b62461bcd0281526020600482018181528351602484015283519092839260449091019190850190808383600083156105ad578181015183820152602001610595565b50505090039056fe5061796d656e7453706c69747465723a206163636f756e7420686173206e6f207368617265735061796d656e7453706c69747465723a206163636f756e74206973206e6f7420647565207061796d656e74536166654d6174683a206d756c7469706c69636174696f6e206f766572666c6f77a165627a7a72305820c54b9ff068f13ad4ded10a942e0c8800582a7ee5acc4440c5b93675640ccf5de00295061796d656e7453706c69747465723a206163636f756e7420697320746865207a65726f20616464726573735061796d656e7453706c69747465723a2070617965657320616e6420736861726573206c656e677468206d69736d617463685061796d656e7453706c69747465723a206163636f756e7420616c72656164792068617320736861726573",
  "source": "pragma solidity 0.5.8;\n\nimport \"@openzeppelin/contracts/payment/PaymentSplitter.sol\";\n\ncontract WalletSplitter is PaymentSplitter {\n    constructor(address[] memory payees, uint256[] memory shares) PaymentSplitter(payees, shares) public {\n        //payees - кошельки между которыми делятся деньги\n        //payees - доли каждого кошелька (например у одного 10% у другого 90%)\n    }\n}",
  "sourcePath": "/home/intfloatbool/Документы/CrowdSale_MyContract/contracts/WalletSplitter.sol",
  "compiler": {
    "name": "solc",
    "version": "0.5.8+commit.23d335f2.Emscripten.clang"
  },
  "schemaVersion": "3.0.17",
  "updatedAt": "2019-11-10T11:45:05.972Z",
  "devdoc": {
    "methods": {
      "payee(uint256)": {
        "details": "Getter for the address of the payee number `index`."
      },
      "release(address)": {
        "details": "Triggers a transfer to `account` of the amount of Ether they are owed, according to their percentage of the total shares and their previous withdrawals."
      },
      "released(address)": {
        "details": "Getter for the amount of Ether already released to a payee."
      },
      "shares(address)": {
        "details": "Getter for the amount of shares held by an account."
      },
      "totalReleased()": {
        "details": "Getter for the total amount of Ether already released."
      },
      "totalShares()": {
        "details": "Getter for the total shares held by payees."
      }
    }
  },
  "userdoc": {
    "methods": {}
  }
}